AXCGXCSRRD
HFDTE060514
HFPLTPilot:RICK DAMIANI
HFTZOTimezone:-6
HFSITSite:Lookout
HPGTYGliderType:DELTA2
HPGIDGliderID:NRRD
HFDTM100DATUM:WGS-1984
HFCIDCOMPETITIONID:
HFCCLCOMPETITIONCLASS:
HFFXA050
HFFTYFRTYPE:XCSOAR,XCSOAR Android 6.7.4 Apr 11 2014
HFGPS:Internal GPS (Android)
LXCG     ICON:C:\Program Files (x86)\CompeGPS\symbols\IconsPlay\blue.ico
LXCG     3DICON:C:\Program Files (x86)\CompeGPS\symbols\3D\paragliders\advance.3di
LXCG     COLOR:000119119
LXCG     LANDING:TOP
LGreat little flight, so not remember much, but it was great.
C060514204800060514000000
LXCG POINTSCOUNT:2916
LXCG COORDBOX:-105.250033,39.717250,-105.223667,39.769500
I023638FXA3940SIU
B2048513944746N10514446WA021660208900000
B2048573944746N10514446WA021660208900000
B2049023944746N10514446WA021670208900000
B2049073944746N10514446WA021660208900000
B2049133944746N10514446WA021660208900000
B2049193944746N10514446WA021660208900000
B2049253944746N10514446WA021660208900000
B2049313944746N10514447WA021660208900000
B2049373944746N10514446WA021670208900000
B2049433944746N10514446WA021670208800000
B2049493944747N10514446WA021660208800000
B2049553944747N10514447WA021660208800000
B2050013944747N10514447WA021670208800000
B2050073944747N10514447WA021660208800000
B2050133944747N10514447WA021670208800000
B2050193944747N10514447WA021670208800000
B2050253944747N10514447WA021670208900000
B2050313944747N10514447WA021670208800000
B2050373944746N10514447WA021660208900000
B2050433944746N10514447WA021670208900000
B2050493944747N10514446WA021660208900000
B2050553944747N10514446WA021670208900000
B2051003944746N10514447WA021660208800000
B2051053944747N10514446WA021660208900000
B2051113944747N10514446WA021670208900000
B2051163944747N10514446WA021670208900000
B2051213944748N10514446WA021660208900000
B2051273944747N10514446WA021670209000000
B2051333944746N10514447WA021670208900000
B2051393944746N10514447WA021670209000000
B2051453944746N10514448WA021680208900000
B2051513944746N10514447WA021670208800000
B2051573944747N10514445WA021670208800000
B2052033944747N10514446WA021670208700000
B2052083944747N10514446WA021670208800000
B2052133944747N10514446WA021670208600000
B2052183944747N10514446WA021670208600000
B2052233944747N10514446WA021660208600000
B2052283944747N10514445WA021660208700000
B2052333944747N10514445WA021670208700000
B2052383944747N10514445WA021670208800000
B2052433944747N10514445WA021670208800000
B2052493944747N10514445WA021670208800000
B2052553944747N10514445WA021670208800000
B2053003944747N10514445WA021670208800000
B2053053944747N10514445WA021670208800000
B2053103944747N10514445WA021670208800000
B2053153944747N10514445WA021670208800000
B2053203944747N10514445WA021670208800000
B2053263944748N10514449WA021670208600000
B2053313944754N10514443WA021610208500000
B2053373944764N10514428WA021640208400000
B2053433944768N10514413WA021700209000000
B2053493944767N10514403WA021710209200000
B2053553944767N10514387WA021770209400000
B2054013944761N10514375WA021850210000000
B2054063944750N10514367WA021880210500000
B2054113944746N10514356WA021900210500000
B2054173944736N10514342WA021930210800000
B2054233944720N10514332WA021940211000000
B2054283944702N10514323WA021970211200000
B2054333944682N10514314WA021960211200000
B2054383944691N10514301WA021890210400000
B2054433944714N10514297WA021890210800000
B2054483944732N10514296WA021870210500000
B2054533944753N10514308WA021920211200000
B2054583944763N10514303WA021890210900000
B2055033944776N10514293WA021980212100000
B2055083944782N10514281WA022040212700000
B2055133944791N10514326WA022060212900000
B2055183944761N10514339WA022070213000000
B2055233944751N10514316WA022160214100000
B2055283944755N10514301WA022160213900000
B2055333944770N10514335WA022160213700000
B2055383944736N10514376WA022130213800000
B2055413944727N10514345WA022180214300000
B2055423944725N10514343WA022200214400000
B2055433944721N10514341WA022210214500000
B2055443944717N10514339WA022220214500000
B2055453944714N10514336WA022220214500000
B2055463944711N10514333WA022220214600000
B2055473944708N10514330WA022220214700000
B2055483944703N10514328WA022230214800000
B2055493944698N10514328WA022240214900000
B2055503944694N10514327WA022230214800000
B2055513944691N10514324WA022210214700000
B2055523944692N10514316WA022170214100000
B2055533944696N10514309WA022160213900000
B2055543944702N10514305WA022160214000000
B2055553944706N10514303WA022180214500000
B2055563944707N10514302WA022210214800000
B2055573944708N10514302WA022230214900000
B2055583944709N10514303WA022240214900000
B2055593944712N10514304WA022240214700000
B2056003944717N10514304WA022240214600000
B2056013944722N10514305WA022250214700000
B2056023944728N10514308WA022270215200000
B2056033944730N10514317WA022290215400000
B2056043944730N10514329WA022310215400000
B2056053944725N10514342WA022330215500000
B2056063944720N10514351WA022330215500000
B2056073944712N10514359WA022350215800000
B2056083944704N10514361WA022350215800000
B2056093944696N10514357WA022350215800000
B2056103944692N10514351WA022350215900000
B2056113944689N10514348WA022360215800000
B2056123944689N10514341WA022370216000000
B2056133944688N10514339WA022390216200000
B2056153944686N10514336WA022390216200000
B2056163944687N10514332WA022370216100000
B2056173944689N10514328WA022360216000000
B2056183944692N10514323WA022370216000000
B2056193944695N10514319WA022380216400000
B2056203944697N10514316WA022410216800000
B2056213944698N10514312WA022430217100000
B2056223944699N10514309WA022460217300000
B2056233944701N10514306WA022470217300000
B2056243944703N10514302WA022480217400000
B2056253944705N10514298WA022490217500000
B2056263944705N10514294WA022500217800000
B2056273944705N10514291WA022530218000000
B2056283944705N10514288WA022550218200000
B2056293944705N10514285WA022570218300000
B2056303944705N10514282WA022580218500000
B2056313944707N10514277WA022580218400000
B2056333944712N10514271WA022620219000000
B2056353944718N10514272WA022670219500000
B2056373944724N10514273WA022710219800000
B2056393944727N10514271WA022730220100000
B2056413944726N10514265WA022740220100000
B2056433944718N10514259WA022750220400000
B2056453944705N10514260WA022780220800000
B2056463944700N10514264WA022820221100000
B2056473944695N10514266WA022830221400000
B2056483944692N10514266WA022850221400000
B2056493944687N10514264WA022850221200000
B2056513944678N10514258WA022860221300000
B2056523944677N10514250WA022880221700000
B2056533944683N10514245WA022900221900000
B2056553944690N10514243WA022940222300000
B2056573944699N10514245WA022990222700000
B2056593944706N10514253WA023030223000000
B2057013944710N10514270WA023060223200000
B2057033944710N10514290WA023080223400000
B2057053944696N10514303WA023100223600000
B2057073944685N10514303WA023130224100000
B2057093944682N10514296WA023160224200000
B2057113944682N10514288WA023180224700000
B2057133944683N10514280WA023210225100000
B2057153944683N10514273WA023240225500000
B2057173944686N10514267WA023270225900000
B2057193944693N10514263WA023300226000000
B2057213944701N10514266WA023320226300000
B2057233944707N10514276WA023340226400000
B2057253944709N10514291WA023340226300000
B2057273944705N10514310WA023320226100000
B2057283944701N10514320WA023290225900000
B2057293944692N10514324WA023280225900000
B2057313944678N10514323WA023270225900000
B2057333944669N10514314WA023330226300000
B2057353944666N10514307WA023420227100000
B2057373944661N10514302WA023450227400000
B2057393944657N10514295WA023450227400000
B2057413944658N10514289WA023440227300000
B2057433944664N10514285WA023420227200000
B2057443944669N10514286WA023420227200000
B2057453944672N10514287WA023420227300000
B2057463944676N10514286WA023420227300000
B2057473944679N10514285WA023420227300000
B2057483944682N10514283WA023420227400000
B2057493944686N10514281WA023430227500000
B2057503944689N10514280WA023440227700000
B2057513944691N10514279WA023450227800000
B2057523944692N10514276WA023450227700000
B2057533944693N10514272WA023450227600000
B2057543944693N10514266WA023450227700000
B2057553944692N10514261WA023450227900000
B2057563944690N10514257WA023460227900000
B2057573944687N10514253WA023460228000000
B2057583944686N10514249WA023470228000000
B2058003944683N10514241WA023490228200000
B2058013944683N10514237WA023510228400000
B2058023944685N10514234WA023520228600000
B2058033944687N10514231WA023530228700000
B2058043944691N10514230WA023530228600000
B2058053944695N10514230WA023540228700000
B2058063944699N10514231WA023550229000000
B2058073944704N10514235WA023560229100000
B2058083944707N10514242WA023580229300000
B2058093944709N10514250WA023610229600000
B2058103944708N10514260WA023630229700000
B2058123944703N10514279WA023640229600000
B2058133944695N10514287WA023630229500000
B2058143944686N10514291WA023630229700000
B2058153944678N10514292WA023640229700000
B2058163944669N10514295WA023650229700000
B2058173944663N10514298WA023670229700000
B2058183944662N10514290WA023700229800000
B2058193944663N10514280WA023710229900000
B2058203944676N10514270WA023720230100000
B2058213944679N10514266WA023720230000000
B2058223944682N10514262WA023720230000000
B2058233944685N10514258WA023720230200000
B2058243944687N10514252WA023730230400000
B2058253944688N10514247WA023750230700000
B2058263944689N10514243WA023770230900000
B2058273944690N10514240WA023790231300000
B2058283944693N10514238WA023810231500000
B2058293944695N10514236WA023830231600000
B2058303944697N10514234WA023840231800000
B2058313944699N10514232WA023860231900000
B2058323944701N10514231WA023870232100000
B2058333944704N10514231WA023880232100000
B2058343944708N10514235WA023870232100000
B2058353944711N10514241WA023870232000000
B2058363944714N10514249WA023860232100000
B2058373944715N10514258WA023860232100000
B2058383944714N10514269WA023850232000000
B2058393944711N10514279WA023850231800000
B2058403944705N10514290WA023840231700000
B2058413944698N10514296WA023830231700000
B2058423944691N10514301WA023820231600000
B2058433944683N10514305WA023830231700000
B2058443944682N10514295WA023830231800000
B2058453944680N10514290WA023840231900000
B2058463944680N10514285WA023850232000000
B2058473944680N10514281WA023860232100000
B2058483944681N10514278WA023870232100000
B2058493944681N10514274WA023870232200000
B2058503944683N10514270WA023880232300000
B2058513944683N10514268WA023880232300000
B2058523944685N10514266WA023890232300000
B2058533944686N10514265WA023890232400000
B2058543944687N10514263WA023880232200000
B2058553944688N10514262WA023860232100000
B2058563944690N10514259WA023850231800000
B2058573944693N10514255WA023830231800000
B2058583944695N10514252WA023820231700000
B2058593944697N10514249WA023820231800000
B2059003944699N10514247WA023820231800000
B2059013944701N10514244WA023820231800000
B2059023944703N10514242WA023820231700000
B2059033944706N10514238WA023800231600000
B2059043944709N10514235WA023790231500000
B2059053944713N10514232WA023790231600000
B2059063944715N10514230WA023790231600000
B2059113944728N10514217WA023780231500000
B2059163944741N10514203WA023790231600000
B2059213944761N10514196WA023840232300000
B2059263944777N10514189WA023850232300000
B2059313944787N10514179WA023870232300000
B2059363944797N10514167WA023810231900000
B2059413944815N10514167WA023770231500000
B2059463944828N10514175WA023820232000000
B2059513944840N10514182WA023790231600000
B2059563944852N10514185WA023860232500000
B2100013944864N10514193WA023890232800000
B2100063944882N10514213WA023940233200000
B2100113944891N10514217WA023970233600000
B2100163944873N10514209WA024060234600000
B2100213944845N10514225WA024140235100000
B2100253944842N10514268WA024170235600000
B2100263944846N10514273WA024170235600000
B2100273944850N10514276WA024190235800000
B2100283944854N10514278WA024210236100000
B2100293944856N10514278WA024250236400000
B2100303944859N10514279WA024270236700000
B2100313944860N10514279WA024300237000000
B2100323944861N10514279WA024320237000000
B2100333944861N10514277WA024330237000000
B2100343944861N10514274WA024330237000000
B2100353944860N10514270WA024330237000000
B2100363944858N10514266WA024330237200000
B2100373944853N10514263WA024340237400000
B2100383944847N10514261WA024370237800000
B2100393944842N10514260WA024400238000000
B2100403944839N10514260WA024430238300000
B2100413944835N10514261WA024450238500000
B2100423944831N10514260WA024460238500000
B2100433944825N10514261WA024470238600000
B2100443944818N10514263WA024480238700000
B2100453944810N10514268WA024500239000000
B2100463944803N10514276WA024520239300000
B2100473944798N10514287WA024560239700000
B2100483944796N10514300WA024580239800000
B2100493944798N10514312WA024600239900000
B2100503944803N10514320WA024610240100000
B2100513944808N10514322WA024630240300000
B2100523944810N10514322WA024640240600000
B2100533944810N10514319WA024660240800000
B2100543944807N10514317WA024680241000000
B2100553944801N10514317WA024700241200000
B2100563944794N10514320WA024720241400000
B2100573944787N10514328WA024740241600000
B2100583944781N10514338WA024760241900000
B2100593944778N10514350WA024800242300000
B2101003944777N10514361WA024830242700000
B2101013944778N10514371WA024870243000000
B2101023944780N10514379WA024890243100000
B2101033944783N10514385WA024900243100000
B2101043944786N10514391WA024910243200000
B2101053944790N10514396WA024920243300000
B2101063944794N10514399WA024930243500000
B2101073944797N10514400WA024940243700000
B2101083944799N10514400WA024960244000000
B2101093944802N10514401WA024970244200000
B2101103944805N10514402WA025000244400000
B2101113944807N10514402WA025010244400000
B2101123944809N10514403WA025020244400000
B2101133944810N10514401WA025010244300000
B2101143944810N10514399WA025010244400000
B2101153944809N10514396WA025000244400000
B2101163944806N10514394WA025000244500000
B2101173944801N10514393WA025000244500000
B2101183944794N10514393WA025010244600000
B2101193944789N10514395WA025030244800000
B2101203944783N10514398WA025040245100000
B2101213944777N10514399WA025070245300000
B2101223944772N10514400WA025090245500000
B2101233944766N10514399WA025120245700000
B2101243944761N10514399WA025140245900000
B2101253944757N10514399WA025180246300000
B2101263944752N10514399WA025210246700000
B2101273944748N10514400WA025260247000000
B2101283944745N10514400WA025280247200000
B2101293944743N10514398WA025300247400000
B2101303944742N10514395WA025310247500000
B2101313944742N10514393WA025320247700000
B2101323944744N10514392WA025340248100000
B2101333944748N10514394WA025370248300000
B2101343944753N10514400WA025390248500000
B2101353944756N10514410WA025410248700000
B2101363944756N10514423WA025430248800000
B2101373944752N10514435WA025450249100000
B2101383944745N10514445WA025470249300000
B2101393944737N10514450WA025480249500000
B2101403944729N10514454WA025500249600000
B2101413944724N10514451WA025540250000000
B2101423944719N10514451WA025570250400000
B2101433944715N10514450WA025610250800000
B2101443944711N10514450WA025650251100000
B2101453944709N10514448WA025690251300000
B2101463944708N10514446WA025710251600000
B2101473944709N10514443WA025730251900000
B2101483944710N10514440WA025750252300000
B2101493944712N10514438WA025790252700000
B2101503944715N10514439WA025820253100000
B2101513944719N10514442WA025860253300000
B2101523944723N10514448WA025880253600000
B2101533944726N10514455WA025920253900000
B2101543944728N10514464WA025940254200000
B2101553944727N10514474WA025970254400000
B2101563944723N10514484WA025980254500000
B2101573944716N10514492WA026000254700000
B2101583944709N10514497WA026020255100000
B2101593944702N10514499WA026050255600000
B2102003944696N10514500WA026090256000000
B2102013944690N10514501WA026150256500000
B2102023944685N10514502WA026190256900000
B2102033944680N10514503WA026230257200000
B2102043944676N10514503WA026250257300000
B2102053944672N10514500WA026250257300000
B2102063944670N10514497WA026250257400000
B2102073944670N10514492WA026250257700000
B2102083944672N10514489WA026280258000000
B2102093944674N10514487WA026300258400000
B2102103944677N10514487WA026340258900000
B2102113944680N10514489WA026370259100000
B2102123944683N10514493WA026400259300000
B2102133944687N10514498WA026410259300000
B2102143944690N10514506WA026420259400000
B2102153944693N10514516WA026430259500000
B2102163944693N10514527WA026460259700000
B2102173944690N10514538WA026470259900000
B2102183944685N10514548WA026490260000000
B2102193944678N10514554WA026510260200000
B2102203944671N10514556WA026530260400000
B2102213944666N10514554WA026540260600000
B2102223944662N10514551WA026570260700000
B2102233944661N10514548WA026590261000000
B2102253944664N10514542WA026630261400000
B2102263944667N10514543WA026660261600000
B2102273944671N10514545WA026670261700000
B2102283944674N10514548WA026680261800000
B2102293944677N10514548WA026690261900000
B2102303944680N10514548WA026690261900000
B2102313944682N10514547WA026700261900000
B2102323944685N10514545WA026700262000000
B2102333944687N10514544WA026700262200000
B2102343944690N10514542WA026720262400000
B2102353944693N10514542WA026730262400000
B2102363944696N10514542WA026730262500000
B2102373944699N10514542WA026740262500000
B2102383944702N10514543WA026730262400000
B2102393944705N10514542WA026710262300000
B2102403944709N10514540WA026710262200000
B2102413944712N10514538WA026710262300000
B2102423944715N10514535WA026710262300000
B2102433944716N10514532WA026710262300000
B2102443944717N10514529WA026710262300000
B2102453944717N10514525WA026710262200000
B2102463944716N10514522WA026700262100000
B2102473944715N10514519WA026690262000000
B2102483944712N10514516WA026680261700000
B2102493944708N10514513WA026650261400000
B2102503944704N10514509WA026630261400000
B2102513944701N10514505WA026630261600000
B2102523944699N10514502WA026640261900000
B2102533944697N10514501WA026670262100000
B2102543944696N10514500WA026700262300000
B2102553944694N10514500WA026710262300000
B2102563944691N10514500WA026710262200000
B2102573944688N10514498WA026700262000000
B2102583944685N10514497WA026680261900000
B2102593944683N10514494WA026680261900000
B2103003944680N10514491WA026670261900000
B2103013944677N10514490WA026670261900000
B2103023944673N10514490WA026670261900000
B2103033944669N10514492WA026660261800000
B2103043944663N10514496WA026650261700000
B2103053944657N10514499WA026640261700000
B2103063944653N10514499WA026640261700000
B2103073944648N10514498WA026630261700000
B2103083944646N10514498WA026630261700000
B2103093944649N10514491WA026630261700000
B2103103944649N10514489WA026630261700000
B2103113944649N10514488WA026630261600000
B2103123944650N10514488WA026610261300000
B2103133944650N10514486WA026570260800000
B2103143944650N10514483WA026530260300000
B2103153944649N10514478WA026470259900000
B2103163944645N10514474WA026430259600000
B2103173944639N10514472WA026410259500000
B2103183944635N10514469WA026420259600000
B2103193944632N10514466WA026430259700000
B2103203944631N10514462WA026430259700000
B2103213944631N10514459WA026430259500000
B2103223944630N10514455WA026420259400000
B2103233944629N10514451WA026400259200000
B2103243944628N10514447WA026390258900000
B2103253944628N10514441WA026370258800000
B2103263944627N10514437WA026350258700000
B2103273944627N10514433WA026350258800000
B2103283944626N10514430WA026350258900000
B2103293944625N10514428WA026360258900000
B2103303944625N10514426WA026360258900000
B2103313944625N10514424WA026360258700000
B2103323944624N10514422WA026350258700000
B2103333944623N10514420WA026330258500000
B2103343944620N10514418WA026310258300000
B2103353944616N10514415WA026290258100000
B2103363944612N10514413WA026280258100000
B2103373944609N10514411WA026280258100000
B2103383944605N10514409WA026280258100000
B2103413944597N10514403WA026260258100000
B2103423944596N10514402WA026240258000000
B2103433944596N10514399WA026240257900000
B2103443944593N10514398WA026230257800000
B2103453944589N10514397WA026230257700000
B2103463944586N10514395WA026220257500000
B2103473944584N10514393WA026220257400000
B2103483944583N10514390WA026200257200000
B2103493944582N10514389WA026190257000000
B2103503944581N10514386WA026160256800000
B2103513944578N10514383WA026150256700000
B2103523944576N10514380WA026150256700000
B2103533944573N10514377WA026150256800000
B2103543944569N10514374WA026160256700000
B2103553944566N10514371WA026150256500000
B2103563944564N10514367WA026140256400000
B2103573944562N10514363WA026140256400000
B2103583944560N10514358WA026140256400000
B2103593944559N10514354WA026140256400000
B2104003944558N10514350WA026140256400000
B2104013944557N10514346WA026140256300000
B2104023944555N10514343WA026130256200000
B2104033944553N10514339WA026120256200000
B2104043944550N10514335WA026120256300000
B2104053944546N10514332WA026130256400000
B2104063944543N10514329WA026140256500000
B2104073944539N10514327WA026140256400000
B2104083944536N10514324WA026130256300000
B2104093944532N10514321WA026110256100000
B2104103944528N10514318WA026090255900000
B2104113944524N10514314WA026070255700000
B2104123944521N10514308WA026070255800000
B2104133944519N10514304WA026080256000000
B2104143944515N10514302WA026090256200000
B2104153944512N10514300WA026120256200000
B2104163944508N10514298WA026120256200000
B2104173944506N10514295WA026120256100000
B2104183944503N10514291WA026110256100000
B2104193944500N10514287WA026100256100000
B2104203944496N10514285WA026100256200000
B2104213944492N10514283WA026120256300000
B2104223944487N10514282WA026130256300000
B2104233944483N10514281WA026130256300000
B2104243944479N10514280WA026120256200000
B2104253944474N10514278WA026110256000000
B2104263944469N10514275WA026100256000000
B2104273944463N10514273WA026100256000000
B2104283944458N10514271WA026110256100000
B2104293944454N10514269WA026120256200000
B2104303944451N10514267WA026130256300000
B2104313944447N10514266WA026140256300000
B2104323944444N10514265WA026140256200000
B2104333944440N10514263WA026130256100000
B2104343944436N10514260WA026120256000000
B2104393944417N10514249WA026150256600000
B2104443944402N10514241WA026190256900000
B2104493944384N10514231WA026220257400000
B2104543944368N10514223WA026240257400000
B2104593944368N10514213WA026250257500000
B2105043944374N10514210WA026280257800000
B2105093944377N10514202WA026230257200000
B2105123944373N10514191WA026230257400000
B2105133944371N10514189WA026240257500000
B2105143944369N10514187WA026250257400000
B2105153944367N10514185WA026240257300000
B2105163944366N10514181WA026230257100000
B2105173944364N10514177WA026210257000000
B2105183944363N10514174WA026210257100000
B2105193944361N10514170WA026220257200000
B2105203944360N10514168WA026230257300000
B2105213944358N10514166WA026240257300000
B2105223944357N10514165WA026240257200000
B2105233944356N10514163WA026220256900000
B2105243944356N10514160WA026190256600000
B2105253944355N10514156WA026170256500000
B2105263944354N10514152WA026170256600000
B2105273944352N10514149WA026170256800000
B2105283944351N10514148WA026190256900000
B2105293944349N10514148WA026200256900000
B2105303944347N10514147WA026200256700000
B2105313944346N10514144WA026180256400000
B2105323944344N10514140WA026150256200000
B2105333944341N10514136WA026140256200000
B2105343944338N10514133WA026140256300000
B2105353944335N10514131WA026150256500000
B2105363944333N10514129WA026160256500000
B2105373944330N10514127WA026160256400000
B2105383944327N10514126WA026160256300000
B2105393944325N10514124WA026140256200000
B2105403944322N10514121WA026120256000000
B2105413944319N10514118WA026110255900000
B2105423944317N10514115WA026090255800000
B2105433944314N10514113WA026090255800000
B2105443944312N10514112WA026080255600000
B2105453944310N10514110WA026060255500000
B2105463944309N10514108WA026020254900000
B2105473944307N10514103WA025970254500000
B2105483944304N10514099WA025940254200000
B2105493944301N10514095WA025930254100000
B2105503944299N10514091WA025910254000000
B2105513944297N10514087WA025900254000000
B2105523944294N10514084WA025890253900000
B2105533944292N10514080WA025880253700000
B2105543944289N10514077WA025870253500000
B2105553944287N10514073WA025850253300000
B2105563944286N10514069WA025830253100000
B2105573944284N10514065WA025800252900000
B2105583944281N10514060WA025790252900000
B2105593944278N10514056WA025780252900000
B2106003944275N10514054WA025790253000000
B2106013944272N10514052WA025800253000000
B2106023944269N10514050WA025800252900000
B2106033944266N10514048WA025790252800000
B2106043944263N10514046WA025780252500000
B2106053944259N10514043WA025750252300000
B2106063944253N10514041WA025740252300000
B2106073944249N10514039WA025720252200000
B2106083944245N10514039WA025720252200000
B2106093944241N10514038WA025710251900000
B2106103944239N10514037WA025690251500000
B2106113944236N10514034WA025640251200000
B2106123944232N10514032WA025620250900000
B2106133944228N10514031WA025600250900000
B2106143944225N10514030WA025600250900000
B2106153944222N10514030WA025600250800000
B2106163944219N10514029WA025590250600000
B2106173944217N10514027WA025580250400000
B2106183944214N10514025WA025550250200000
B2106193944211N10514022WA025530250000000
B2106203944212N10514017WA025500249700000
B2106213944213N10514012WA025480249500000
B2106223944215N10514009WA025480249600000
B2106233944216N10514006WA025480249600000
B2106243944217N10514003WA025480249500000
B2106253944217N10514001WA025470249300000
B2106263944218N10513999WA025470249200000
B2106273944220N10513996WA025440248900000
B2106283944220N10513991WA025420248600000
B2106293944220N10513985WA025390248500000
B2106303944219N10513980WA025380248400000
B2106313944219N10513976WA025380248300000
B2106323944219N10513972WA025370248300000
B2106333944218N10513968WA025360248100000
B2106343944218N10513964WA025350247800000
B2106353944218N10513959WA025320247500000
B2106363944217N10513955WA025300247400000
B2106373944217N10513951WA025290247300000
B2106383944216N10513948WA025280247300000
B2106393944215N10513946WA025270247100000
B2106403944214N10513943WA025260247000000
B2106413944212N10513939WA025240246700000
B2106423944212N10513935WA025200246300000
B2106433944212N10513930WA025150245800000
B2106443944212N10513924WA025110245600000
B2106453944214N10513919WA025080245400000
B2106463944215N10513915WA025060245200000
B2106473944218N10513911WA025050245000000
B2106483944220N10513908WA025040244800000
B2106493944222N10513904WA025030244600000
B2106503944223N10513900WA025010244400000
B2106513944224N10513894WA024990244300000
B2106523944224N10513889WA024990244600000
B2106533944225N10513886WA025020244800000
B2106543944226N10513885WA025050245000000
B2106553944227N10513883WA025060245000000
B2106563944227N10513881WA025060245000000
B2106573944226N10513877WA025050244800000
B2106583944225N10513873WA025040244600000
B2106593944224N10513869WA025030244600000
B2107003944222N10513865WA025020244700000
B2107013944221N10513862WA025020244700000
B2107023944220N10513861WA025030244700000
B2107033944219N10513859WA025020244400000
B2107043944219N10513856WA024980244000000
B2107053944219N10513851WA024940243500000
B2107063944217N10513846WA024910243300000
B2107073944215N10513842WA024900243400000
B2107083944212N10513840WA024900243400000
B2107093944208N10513839WA024900243400000
B2107103944205N10513837WA024890243200000
B2107113944202N10513834WA024870243000000
B2107123944199N10513830WA024850242900000
B2107133944195N10513826WA024840242800000
B2107143944192N10513823WA024840242800000
B2107153944190N10513821WA024840242700000
B2107163944187N10513818WA024820242400000
B2107173944185N10513814WA024790242100000
B2107183944182N10513810WA024760241700000
B2107193944177N10513806WA024730241600000
B2107203944172N10513802WA024720241600000
B2107213944168N10513799WA024720241800000
B2107263944148N10513779WA024700241300000
B2107263944148N10513779WA024700241300000
B2107313944127N10513763WA024660240800000
B2107363944108N10513751WA024650240800000
B2107413944087N10513738WA024660240900000
B2107463944068N10513722WA024670241000000
B2107513944047N10513702WA024720241500000
B2107563944020N10513687WA024790242300000
B2108013943998N10513680WA024780242100000
B2108063943974N10513663WA024670241300000
B2108113943956N10513640WA024620240800000
B2108163943949N10513619WA024670241300000
B2108213943946N10513604WA024730241700000
B2108263943951N10513591WA024750241900000
B2108313943970N10513613WA024630240800000
B2108363943991N10513651WA024540240200000
B2108413944005N10513692WA024550239900000
B2108463944020N10513726WA024530239600000
B2108513944039N10513739WA024490239300000
B2108563944050N10513737WA024440238800000
B2109013944057N10513725WA024480239000000
B2109063944063N10513717WA024430238400000
B2109113944046N10513699WA024340237600000
B2109163944024N10513677WA024290237000000
B2109213944006N10513657WA024350237600000
B2109263943988N10513643WA024390237900000
B2109313943970N10513632WA024410238200000
B2109363943943N10513629WA024370237600000
B2109413943917N10513667WA024370237700000
B2109463943930N10513705WA024440238700000
B2109513943943N10513732WA024500238900000
B2109563943935N10513719WA024460239000000
B2110013943914N10513760WA024510239200000
B2110063943923N10513801WA024560239900000
B2110073943926N10513807WA024570239900000
B2110083943929N10513812WA024580239900000
B2110093943932N10513817WA024580240000000
B2110103943936N10513822WA024590240000000
B2110113943940N10513827WA024590240200000
B2110123943942N10513834WA024600240300000
B2110133943943N10513842WA024610240500000
B2110143943945N10513849WA024630240600000
B2110153943946N10513857WA024630240700000
B2110163943949N10513864WA024640240800000
B2110173943951N10513872WA024640240900000
B2110183943953N10513880WA024670241100000
B2110193943954N10513887WA024680241200000
B2110203943955N10513894WA024700241300000
B2110213943956N10513902WA024710241400000
B2110223943958N10513908WA024720241500000
B2110233943961N10513913WA024730241500000
B2110243943964N10513916WA024720241400000
B2110253943967N10513917WA024710241300000
B2110263943968N10513917WA024690241300000
B2110273943968N10513907WA024680241400000
B2110283943966N10513901WA024690241500000
B2110293943963N10513898WA024700241700000
B2110303943960N10513894WA024720241800000
B2110313943957N10513891WA024720241800000
B2110323943954N10513888WA024730241800000
B2110333943950N10513885WA024730241700000
B2110343943947N10513882WA024720241600000
B2110353943945N10513879WA024720241600000
B2110363943943N10513874WA024710241400000
B2110373943941N10513869WA024710241500000
B2110383943938N10513865WA024730241700000
B2110393943934N10513863WA024750241900000
B2110403943930N10513861WA024780242000000
B2110413943927N10513859WA024790242000000
B2110423943925N10513857WA024790241900000
B2110433943924N10513854WA024780241900000
B2110443943923N10513850WA024770241900000
B2110453943920N10513847WA024770241900000
B2110463943917N10513844WA024770242000000
B2110473943912N10513841WA024770242100000
B2110483943908N10513840WA024780242100000
B2110493943904N10513837WA024780242100000
B2110503943901N10513834WA024780242100000
B2110513943898N10513831WA024790242200000
B2110523943894N10513827WA024810242400000
B2110533943890N10513825WA024820242600000
B2110543943885N10513824WA024850242800000
B2110553943881N10513822WA024860242900000
B2110563943877N10513821WA024880243000000
B2110573943873N10513818WA024900243200000
B2110583943870N10513816WA024910243300000
B2110593943869N10513813WA024920243400000
B2111003943869N10513811WA024920243200000
B2111013943872N10513810WA024920243300000
B2111023943876N10513812WA024920243400000
B2111033943880N10513816WA024920243400000
B2111043943883N10513824WA024920243400000
B2111053943884N10513834WA024930243500000
B2111063943884N10513844WA024940243700000
B2111073943881N10513854WA024960243900000
B2111083943876N10513862WA024970244100000
B2111093943870N10513868WA024990244100000
B2111103943863N10513870WA025000244200000
B2111113943855N10513871WA025010244200000
B2111123943850N10513868WA025010244400000
B2111133943844N10513865WA025030244500000
B2111143943840N10513863WA025040244600000
B2111153943837N10513860WA025050244700000
B2111163943835N10513858WA025060244800000
B2111173943835N10513856WA025060244600000
B2111183943836N10513855WA025050244500000
B2111193943839N10513853WA025030244400000
B2111203943841N10513852WA025020244500000
B2111213943844N10513850WA025030244600000
B2111223943846N10513849WA025040244800000
B2111233943847N10513848WA025070245000000
B2111243943849N10513848WA025080245100000
B2111253943851N10513847WA025090245200000
B2111263943852N10513846WA025090245200000
B2111273943854N10513845WA025100245300000
B2111283943856N10513844WA025110245400000
B2111293943858N10513844WA025120245500000
B2111303943860N10513843WA025140245700000
B2111313943862N10513843WA025150245900000
B2111323943863N10513843WA025170246100000
B2111333943865N10513843WA025180246300000
B2111343943867N10513844WA025200246500000
B2111353943870N10513846WA025220246700000
B2111363943873N10513852WA025240246800000
B2111373943874N10513858WA025240246900000
B2111383943874N10513866WA025270247100000
B2111393943873N10513876WA025280247300000
B2111403943871N10513885WA025300247400000
B2111413943866N10513894WA025310247600000
B2111423943859N10513900WA025330247700000
B2111433943851N10513905WA025340247900000
B2111443943843N10513906WA025350248000000
B2111453943837N10513904WA025360248000000
B2111463943832N10513899WA025370248100000
B2111473943830N10513894WA025380248200000
B2111483943829N10513891WA025400248400000
B2111493943831N10513889WA025410248600000
B2111503943833N10513888WA025420248600000
B2111513943837N10513891WA025420248600000
B2111523943841N10513894WA025430248800000
B2111533943845N10513897WA025450249100000
B2111543943849N10513899WA025470249500000
B2111553943852N10513901WA025500249800000
B2111563943854N10513903WA025530250000000
B2111573943857N10513905WA025560250200000
B2111583943860N10513909WA025580250400000
B2111593943862N10513914WA025600250500000
B2112003943864N10513922WA025610250600000
B2112013943864N10513930WA025610250700000
B2112023943864N10513939WA025620250900000
B2112033943862N10513949WA025620251000000
B2112043943859N10513958WA025640251100000
B2112053943855N10513967WA025640251200000
B2112063943849N10513976WA025650251200000
B2112073943842N10513983WA025660251400000
B2112083943835N10513988WA025690251600000
B2112093943827N10513991WA025700251800000
B2112103943820N10513992WA025730252100000
B2112113943813N10513992WA025750252200000
B2112123943808N10513989WA025780252400000
B2112133943804N10513984WA025790252500000
B2112143943802N10513980WA025800252600000
B2112153943803N10513977WA025810252700000
B2112163943806N10513975WA025820252800000
B2112173943809N10513977WA025830252800000
B2112183943812N10513980WA025840253000000
B2112193943816N10513983WA025860253200000
B2112203943819N10513986WA025880253400000
B2112213943822N10513990WA025890253600000
B2112223943824N10513995WA025910253800000
B2112233943826N10514000WA025920253900000
B2112243943827N10514008WA025930254000000
B2112253943828N10514017WA025940254000000
B2112263943828N10514026WA025950254200000
B2112273943826N10514037WA025970254400000
B2112283943822N10514046WA025990254600000
B2112293943817N10514054WA026000254600000
B2112303943808N10514058WA026000254700000
B2112313943801N10514061WA026010254800000
B2112323943794N10514060WA026020254900000
B2112333943788N10514058WA026030255100000
B2112343943784N10514055WA026040255100000
B2112353943783N10514051WA026040255200000
B2112363943781N10514047WA026040255400000
B2112373943779N10514044WA026060255600000
B2112383943776N10514040WA026080255800000
B2112393943772N10514037WA026110256000000
B2112403943768N10514034WA026120256200000
B2112413943765N10514031WA026140256300000
B2112423943763N10514027WA026150256400000
B2112433943761N10514024WA026170256500000
B2112443943761N10514020WA026180256600000
B2112453943763N10514019WA026180256700000
B2112463943766N10514018WA026190256700000
B2112473943769N10514020WA026190256800000
B2112483943773N10514023WA026200256900000
B2112493943776N10514026WA026210257000000
B2112503943779N10514029WA026220257200000
B2112513943782N10514033WA026240257300000
B2112523943785N10514036WA026260257500000
B2112533943788N10514040WA026280257600000
B2112543943791N10514043WA026290257700000
B2112553943794N10514046WA026300257900000
B2112563943797N10514049WA026310258100000
B2112573943800N10514053WA026320258200000
B2112583943803N10514060WA026320258200000
B2112593943805N10514067WA026320258100000
B2113003943808N10514079WA026310258000000
B2113013943807N10514092WA026300258000000
B2113023943803N10514105WA026290258000000
B2113033943796N10514115WA026300258000000
B2113043943788N10514121WA026300258100000
B2113053943781N10514125WA026300258100000
B2113063943774N10514126WA026300258100000
B2113073943770N10514122WA026300258000000
B2113083943765N10514121WA026300258000000
B2113093943760N10514118WA026290258000000
B2113103943756N10514115WA026290257900000
B2113113943755N10514112WA026290258000000
B2113123943754N10514108WA026300258200000
B2113133943753N10514105WA026320258400000
B2113143943751N10514101WA026330258500000
B2113153943747N10514098WA026340258600000
B2113163943742N10514095WA026350258700000
B2113173943739N10514091WA026370258700000
B2113183943737N10514089WA026370258700000
B2113193943736N10514085WA026360258600000
B2113203943735N10514082WA026350258600000
B2113213943733N10514078WA026350258600000
B2113223943729N10514075WA026350258800000
B2113233943724N10514074WA026360258900000
B2113243943721N10514073WA026370259000000
B2113253943720N10514072WA026370258700000
B2113263943720N10514071WA026360258500000
B2113273943719N10514068WA026320258100000
B2113283943715N10514064WA026290257800000
B2113293943712N10514060WA026260257800000
B2113303943709N10514057WA026260257900000
B2113313943706N10514054WA026280258000000
B2113323943706N10514053WA026290257900000
B2113333943704N10514051WA026300257900000
B2113343943703N10514049WA026300257800000
B2113353943701N10514045WA026290257700000
B2113363943699N10514041WA026280257700000
B2113373943697N10514038WA026280257800000
B2113383943695N10514035WA026290258000000
B2113433943684N10514021WA026340258100000
B2113483943674N10514006WA026400258800000
B2113533943665N10513999WA026400258800000
B2113583943662N10513984WA026230257400000
B2114033943663N10513972WA026210256900000
B2114083943667N10513958WA026210257200000
B2114133943671N10513952WA026240257400000
B2114183943685N10513949WA026220257300000
B2114233943697N10513947WA026180256800000
B2114283943711N10513937WA026110256200000
B2114333943725N10513928WA026150256500000
B2114383943733N10513917WA026250257600000
B2114433943738N10513907WA026380258800000
B2114483943744N10513903WA026440259400000
B2114533943760N10513894WA026460259800000
B2114583943767N10513887WA026520260300000
B2115033943786N10513888WA026640261700000
B2115083943790N10513935WA026680261900000
B2115133943764N10513953WA026720262300000
B2115183943755N10513941WA026810263100000
B2115233943749N10513932WA026820263300000
B2115283943740N10513923WA026870263900000
B2115333943734N10513911WA026880264300000
B2115383943736N10513907WA026920264600000
B2115433943747N10513900WA026940264900000
B2115483943744N10513884WA026970265200000
B2115533943736N10513866WA027030265700000
B2115583943723N10513850WA027150267100000
B2116033943727N10513842WA027260267800000
B2116083943728N10513887WA027320268700000
B2116133943697N10513895WA027400269400000
B2116163943691N10513885WA027460270100000
B2116173943689N10513883WA027480270300000
B2116183943687N10513880WA027500270400000
B2116193943687N10513877WA027510270500000
B2116203943686N10513873WA027520270600000
B2116213943686N10513870WA027530270900000
B2116223943686N10513866WA027560271300000
B2116233943686N10513864WA027610271700000
B2116243943686N10513862WA027650272100000
B2116253943686N10513861WA027700272500000
B2116263943686N10513859WA027720272900000
B2116273943687N10513858WA027760273200000
B2116283943689N10513857WA027780273600000
B2116293943692N10513858WA027820273900000
B2116303943695N10513862WA027850274100000
B2116313943699N10513868WA027880274300000
B2116323943701N10513878WA027890274500000
B2116333943701N10513890WA027910274800000
B2116343943698N10513902WA027930275100000
B2116353943693N10513912WA027960275300000
B2116363943686N10513920WA027980275600000
B2116373943678N10513924WA028020275900000
B2116383943672N10513925WA028050276200000
B2116393943667N10513924WA028070276400000
B2116403943664N10513921WA028090276500000
B2116413943664N10513918WA028110276800000
B2116423943665N10513916WA028130277200000
B2116433943666N10513915WA028170277600000
B2116443943667N10513914WA028210278000000
B2116453943668N10513914WA028250278300000
B2116463943669N10513913WA028290278700000
B2116473943669N10513912WA028310279000000
B2116483943670N10513911WA028340279300000
B2116493943671N10513911WA028370279600000
B2116503943674N10513912WA028390279800000
B2116513943678N10513915WA028420280100000
B2116523943683N10513918WA028450280600000
B2116533943686N10513920WA028490281000000
B2116543943688N10513921WA028520281300000
B2116553943691N10513922WA028550281600000
B2116563943695N10513923WA028580281900000
B2116573943699N10513924WA028610282100000
B2116583943704N10513928WA028620282300000
B2116593943708N10513934WA028630282400000
B2117003943711N10513943WA028630282400000
B2117013943713N10513954WA028620282300000
B2117023943711N10513966WA028620282400000
B2117033943706N10513976WA028630282500000
B2117043943699N10513982WA028630282500000
B2117053943692N10513983WA028630282600000
B2117063943685N10513982WA028640282800000
B2117073943680N10513980WA028660283000000
B2117083943676N10513977WA028680283100000
B2117093943673N10513974WA028700283300000
B2117103943670N10513970WA028720283600000
B2117113943667N10513965WA028750283900000
B2117123943665N10513962WA028790284300000
B2117133943663N10513960WA028840284800000
B2117143943662N10513958WA028870285100000
B2117153943660N10513956WA028900285300000
B2117163943658N10513954WA028930285500000
B2117173943657N10513951WA028940285500000
B2117183943657N10513948WA028960285800000
B2117193943658N10513945WA028970285900000
B2117203943661N10513943WA028980286000000
B2117213943663N10513942WA028990286200000
B2117223943667N10513942WA029000286400000
B2117233943670N10513945WA029010286400000
B2117243943674N10513949WA029010286400000
B2117253943678N10513956WA029010286300000
B2117263943682N10513965WA029000286300000
B2117273943685N10513975WA029000286400000
B2117283943687N10513986WA029010286500000
B2117293943684N10513997WA029020286500000
B2117303943680N10514008WA029020286600000
B2117313943673N10514016WA029030286700000
B2117323943667N10514021WA029040286900000
B2117333943661N10514024WA029050287100000
B2117343943656N10514025WA029070287100000
B2117353943652N10514025WA029080287100000
B2117363943652N10514018WA029090287400000
B2117373943649N10514017WA029120287700000
B2117383943647N10514016WA029130287700000
B2117393943644N10514015WA029140287700000
B2117403943641N10514013WA029130287600000
B2117413943638N10514009WA029110287400000
B2117423943634N10514005WA029100287300000
B2117433943630N10514000WA029090287300000
B2117443943626N10513997WA029100287500000
B2117453943621N10513996WA029120287700000
B2117463943617N10513994WA029120287600000
B2117473943613N10513992WA029120287400000
B2117483943609N10513989WA029100287200000
B2117493943605N10513985WA029070286900000
B2117503943601N10513982WA029060286700000
B2117513943598N10513979WA029030286700000
B2117523943594N10513977WA029020286500000
B2117533943591N10513976WA028990286200000
B2117583943569N10513957WA028810284700000
B2118033943549N10513937WA028700283500000
B2118083943539N10513907WA028620283000000
B2118133943536N10513888WA028720283800000
B2118183943528N10513872WA028760284200000
B2118233943517N10513856WA028840285000000
B2118283943511N10513842WA028940286000000
B2118333943512N10513831WA029020286800000
B2118383943531N10513841WA029070287000000
B2118433943525N10513890WA029070287100000
B2118473943503N10513893WA029070287300000
B2118483943500N10513890WA029080287500000
B2118493943497N10513888WA029090287700000
B2118503943495N10513885WA029110287900000
B2118513943493N10513883WA029150288000000
B2118523943492N10513881WA029170288300000
B2118533943491N10513879WA029200288500000
B2118543943491N10513877WA029210288700000
B2118553943490N10513874WA029230288900000
B2118563943490N10513872WA029250289000000
B2118573943490N10513869WA029280289200000
B2118583943492N10513868WA029290289400000
B2118593943496N10513869WA029310289500000
B2119003943500N10513870WA029320289600000
B2119013943504N10513873WA029320289700000
B2119023943507N10513878WA029330289800000
B2119033943510N10513885WA029330289800000
B2119043943513N10513893WA029330289700000
B2119053943515N10513903WA029320289700000
B2119063943514N10513914WA029320289800000
B2119073943510N10513925WA029320289700000
B2119083943505N10513933WA029320289700000
B2119093943497N10513938WA029310289700000
B2119103943490N10513939WA029310289800000
B2119113943484N10513939WA029320289800000
B2119123943481N10513939WA029330289900000
B2119133943478N10513937WA029350289900000
B2119143943479N10513929WA029360290100000
B2119153943478N10513926WA029380290200000
B2119163943476N10513922WA029390290200000
B2119173943475N10513920WA029400290200000
B2119183943474N10513917WA029410290300000
B2119193943474N10513915WA029420290400000
B2119203943474N10513913WA029420290500000
B2119213943475N10513910WA029420290600000
B2119223943474N10513906WA029420290600000
B2119233943474N10513902WA029420290500000
B2119243943474N10513898WA029430290600000
B2119253943473N10513894WA029450291000000
B2119263943472N10513891WA029480291300000
B2119273943470N10513890WA029520291600000
B2119283943469N10513888WA029530291700000
B2119293943468N10513886WA029540291700000
B2119303943468N10513883WA029540291700000
B2119313943468N10513880WA029540291900000
B2119323943467N10513877WA029550292200000
B2119333943467N10513874WA029570292400000
B2119343943466N10513872WA029590292600000
B2119353943466N10513870WA029610292700000
B2119363943466N10513868WA029610292800000
B2119373943465N10513865WA029620292900000
B2119383943465N10513862WA029630292900000
B2119393943463N10513858WA029630293000000
B2119403943462N10513855WA029640293100000
B2119413943460N10513851WA029650293200000
B2119423943459N10513848WA029660293300000
B2119433943458N10513844WA029660293400000
B2119443943457N10513841WA029680293700000
B2119453943456N10513838WA029690293800000
B2119463943455N10513835WA029700293900000
B2119473943454N10513833WA029700293800000
B2119483943452N10513831WA029690293800000
B2119493943452N10513827WA029680293700000
B2119503943455N10513823WA029670293600000
B2119513943458N10513821WA029670293700000
B2119523943462N10513820WA029680293800000
B2119533943465N10513821WA029690294000000
B2119543943469N10513823WA029700294000000
B2119553943473N10513825WA029710294000000
B2119563943478N10513828WA029700293900000
B2119573943483N10513831WA029690293900000
B2119583943488N10513836WA029690293900000
B2119593943494N10513840WA029690293900000
B2120003943498N10513842WA029690294000000
B2120013943503N10513842WA029690294000000
B2120023943507N10513841WA029690294000000
B2120033943509N10513838WA029690294000000
B2120043943511N10513836WA029680294000000
B2120053943513N10513834WA029690294100000
B2120063943515N10513832WA029700294200000
B2120073943517N10513830WA029700294100000
B2120083943518N10513827WA029690294100000
B2120093943519N10513824WA029690294000000
B2120103943519N10513821WA029690294100000
B2120113943520N10513819WA029700294200000
B2120123943520N10513818WA029690294200000
B2120133943520N10513816WA029690294000000
B2120143943519N10513814WA029680293800000
B2120153943518N10513811WA029670293700000
B2120163943517N10513807WA029660293700000
B2120173943515N10513805WA029660293800000
B2120183943513N10513802WA029670293800000
B2120193943512N10513800WA029680293800000
B2120203943511N10513798WA029680293800000
B2120213943509N10513796WA029680293700000
B2120223943508N10513794WA029660293500000
B2120233943505N10513791WA029640293200000
B2120243943502N10513788WA029590292900000
B2120253943499N10513784WA029580292600000
B2120263943495N10513780WA029570292600000
B2120273943492N10513777WA029560292700000
B2120283943489N10513775WA029570292800000
B2120293943485N10513773WA029580292800000
B2120303943481N10513772WA029580292600000
B2120313943477N10513769WA029570292400000
B2120323943474N10513764WA029540292200000
B2120333943471N10513760WA029520292200000
B2120343943468N10513757WA029520292200000
B2120353943466N10513754WA029510292100000
B2120363943463N10513752WA029490291900000
B2120373943459N10513749WA029460291600000
B2120383943456N10513746WA029440291300000
B2120393943453N10513742WA029420291200000
B2120403943452N10513738WA029410291200000
B2120413943451N10513735WA029410291200000
B2120423943450N10513732WA029410291100000
B2120433943448N10513729WA029410290900000
B2120443943446N10513725WA029400290800000
B2120453943444N10513720WA029380290600000
B2120463943441N10513716WA029370290500000
B2120473943439N10513713WA029360290400000
B2120483943436N10513710WA029350290200000
B2120493943433N10513707WA029340290000000
B2120503943430N10513704WA029320289800000
B2120513943427N10513700WA029290289500000
B2120523943424N10513695WA029260289100000
B2120533943420N10513689WA029220288900000
B2120543943418N10513683WA029210288900000
B2120553943415N10513677WA029220289000000
B2120563943413N10513672WA029230289100000
B2120573943410N10513668WA029240289200000
B2120583943407N10513665WA029260289200000
B2120593943404N10513661WA029260289200000
B2121043943389N10513646WA029150287900000
B2121093943373N10513620WA028930285900000
B2121143943359N10513595WA028790284300000
B2121193943343N10513569WA028690283500000
B2121243943326N10513555WA028660283300000
B2121293943309N10513544WA028630282800000
B2121343943296N10513524WA028510281700000
B2121393943281N10513504WA028430280800000
B2121443943274N10513483WA028390280200000
B2121493943259N10513461WA028250278900000
B2121543943234N10513445WA028190278300000
B2121593943205N10513437WA028170277900000
B2122043943175N10513437WA028160277900000
B2122093943146N10513436WA028160278000000
B2122143943121N10513431WA028240278700000
B2122193943112N10513420WA028280279100000
B2122243943134N10513427WA028310279500000
B2122293943138N10513476WA028340279600000
B2122333943113N10513490WA028360280000000
B2122343943109N10513487WA028370280100000
B2122353943106N10513484WA028390280300000
B2122363943102N10513482WA028410280500000
B2122373943098N10513481WA028440280600000
B2122383943094N10513481WA028450280800000
B2122393943091N10513480WA028450280800000
B2122403943087N10513479WA028460280800000
B2122413943083N10513478WA028460280800000
B2122423943079N10513477WA028460280900000
B2122433943075N10513476WA028460281000000
B2122443943071N10513476WA028460281000000
B2122453943066N10513476WA028460281000000
B2122463943060N10513475WA028460280800000
B2122473943055N10513473WA028450280800000
B2122483943050N10513471WA028450280800000
B2122493943045N10513469WA028460280900000
B2122543943035N10513462WA028480281000000
B2122593943045N10513452WA028430280600000
B2123043943061N10513451WA028340279700000
B2123093943076N10513453WA028310279200000
B2123143943096N10513456WA028260278800000
B2123193943116N10513458WA028190278200000
B2123243943137N10513462WA028120277300000
B2123293943159N10513468WA028080276900000
B2123343943184N10513474WA027970275900000
B2123393943209N10513477WA027880274900000
B2123443943233N10513483WA027830274200000
B2123493943258N10513486WA027780273800000
B2123543943281N10513487WA027730273100000
B2123593943303N10513487WA027680272700000
B2124043943328N10513493WA027630272100000
B2124093943356N10513502WA027600271900000
B2124143943386N10513513WA027620272300000
B2124193943409N10513525WA027720273200000
B2124243943431N10513536WA027840274600000
B2124293943448N10513542WA027900274900000
B2124343943434N10513537WA027850274600000
B2124393943409N10513577WA027870274900000
B2124443943400N10513637WA027960275900000
B2124453943402N10513647WA028000276300000
B2124463943405N10513656WA028030276600000
B2124473943407N10513665WA028060276800000
B2124483943410N10513673WA028080276900000
B2124493943414N10513680WA028080276800000
B2124503943419N10513686WA028080276800000
B2124513943425N10513689WA028070276900000
B2124523943429N10513689WA028080277000000
B2124533943432N10513687WA028080277200000
B2124543943434N10513685WA028100277400000
B2124553943435N10513682WA028120277600000
B2124563943436N10513680WA028160277800000
B2124573943437N10513679WA028180278000000
B2124583943438N10513678WA028210278200000
B2124593943439N10513677WA028210278300000
B2125003943438N10513675WA028220278300000
B2125013943435N10513672WA028220278200000
B2125023943429N10513670WA028200278100000
B2125033943423N10513672WA028180278000000
B2125043943416N10513677WA028170278000000
B2125053943410N10513685WA028170278000000
B2125063943406N10513696WA028170278000000
B2125073943405N10513708WA028170278000000
B2125083943406N10513720WA028190278200000
B2125093943410N10513729WA028210278400000
B2125103943413N10513737WA028240278700000
B2125113943418N10513743WA028260278900000
B2125123943422N10513747WA028280279100000
B2125133943425N10513751WA028310279300000
B2125143943429N10513754WA028330279600000
B2125153943433N10513757WA028350279800000
B2125163943436N10513759WA028370280000000
B2125173943439N10513761WA028390280100000
B2125183943442N10513761WA028400280200000
B2125193943442N10513758WA028410280100000
B2125203943441N10513755WA028410280100000
B2125213943438N10513754WA028400280100000
B2125223943433N10513755WA028390279900000
B2125233943427N10513759WA028370279700000
B2125243943421N10513764WA028340279600000
B2125253943415N10513775WA028330279600000
B2125263943411N10513787WA028310279400000
B2125273943411N10513800WA028300279300000
B2125283943412N10513813WA028300279400000
B2125293943415N10513824WA028310279600000
B2125303943418N10513832WA028330279900000
B2125313943422N10513839WA028350279900000
B2125323943427N10513843WA028370279900000
B2125333943432N10513849WA028370280000000
B2125343943437N10513855WA028390280200000
B2125353943443N10513860WA028400280400000
B2125363943447N10513866WA028420280500000
B2125373943452N10513871WA028430280600000
B2125383943457N10513875WA028450280600000
B2125393943462N10513880WA028450280600000
B2125403943467N10513883WA028450280600000
B2125413943474N10513887WA028450280600000
B2125423943479N10513892WA028450280700000
B2125433943484N10513898WA028460280800000
B2125443943489N10513904WA028460280800000
B2125453943495N10513908WA028460280800000
B2125503943522N10513924WA028460280900000
B2125553943548N10513945WA028410280600000
B2126003943575N10513960WA028430280700000
B2126053943601N10513969WA028370280100000
B2126103943623N10513980WA028360279900000
B2126153943649N10513984WA028280279200000
B2126203943679N10513990WA028270279000000
B2126253943706N10513992WA028270279000000
B2126303943733N10513992WA028240278700000
B2126353943755N10513987WA028240278600000
B2126403943782N10513985WA028230278600000
B2126453943801N10513991WA028200277900000
B2126503943830N10513990WA028140277800000
B2126553943852N10513993WA028190278100000
B2127003943875N10514003WA028160277800000
B2127053943896N10514012WA028190277900000
B2127103943921N10514018WA028220278800000
B2127153943938N10514028WA028280279100000
B2127203943956N10514037WA028320279600000
B2127253943969N10514043WA028370279900000
B2127303943987N10514058WA028420280500000
B2127353944002N10514090WA028470280900000
B2127403943991N10514142WA028470280900000
B2127453943963N10514146WA028510281400000
B2127483943958N10514138WA028560281800000
B2127493943958N10514136WA028570281800000
B2127503943959N10514135WA028570281700000
B2127513943962N10514134WA028560281600000
B2127523943965N10514134WA028540281600000
B2127533943970N10514133WA028540281800000
B2127543943973N10514132WA028560282000000
B2127553943976N10514131WA028580282200000
B2127563943978N10514129WA028610282500000
B2127573943980N10514129WA028620282700000
B2127583943982N10514128WA028640282800000
B2127593943985N10514128WA028640282800000
B2128003943988N10514128WA028640282800000
B2128013943992N10514128WA028650282900000
B2128023943997N10514131WA028650283000000
B2128033944000N10514136WA028660283100000
B2128043944003N10514142WA028660283100000
B2128053944005N10514148WA028660283000000
B2128063944007N10514156WA028650282800000
B2128073944009N10514166WA028640282700000
B2128083944011N10514177WA028630282600000
B2128093944009N10514189WA028610282500000
B2128103944004N10514199WA028600282600000
B2128113943998N10514208WA028620282700000
B2128123943991N10514214WA028630283100000
B2128133943985N10514217WA028670283400000
B2128143943980N10514219WA028700283500000
B2128153943975N10514219WA028720283600000
B2128163943972N10514217WA028730283600000
B2128173943968N10514215WA028740283800000
B2128183943963N10514215WA028750284000000
B2128193943958N10514215WA028770284200000
B2128203943953N10514215WA028780284300000
B2128213943949N10514215WA028800284400000
B2128223943946N10514213WA028800284400000
B2128233943946N10514209WA028800284300000
B2128243943948N10514209WA028790284400000
B2128263943954N10514210WA028800284500000
B2128273943957N10514214WA028800284500000
B2128283943960N10514220WA028800284400000
B2128293943964N10514230WA028790284300000
B2128313943964N10514250WA028770284100000
B2128323943961N10514260WA028760284200000
B2128333943955N10514269WA028760284200000
B2128343943948N10514274WA028770284400000
B2128353943940N10514278WA028780284600000
B2128363943936N10514274WA028800284600000
B2128383943933N10514270WA028810284700000
B2128403943937N10514269WA028800284700000
B2128413943942N10514272WA028790284500000
B2128423943946N10514278WA028770284400000
B2128443943949N10514299WA028750284200000
B2128463943948N10514321WA028770284500000
B2128473943945N10514332WA028790284700000
B2128483943940N10514339WA028810284900000
B2128493943934N10514347WA028830285000000
B2128503943927N10514350WA028840285100000
B2128513943921N10514353WA028860285300000
B2128523943916N10514355WA028880285400000
B2128543943908N10514355WA028880285300000
B2128553943906N10514352WA028870285200000
B2128563943907N10514349WA028850285100000
B2128573943909N10514346WA028830285200000
B2128583943911N10514343WA028840285400000
B2128593943913N10514342WA028850285400000
B2129003943915N10514340WA028860285400000
B2129013943918N10514339WA028870285500000
B2129023943921N10514337WA028870285500000
B2129033943924N10514335WA028860285600000
B2129043943928N10514334WA028870285700000
B2129053943929N10514332WA028880285800000
B2129063943931N10514331WA028890285900000
B2129073943933N10514332WA028900285700000
B2129093943941N10514330WA028880285500000
B2129103943945N10514329WA028870285500000
B2129113943947N10514327WA028880285600000
B2129123943949N10514326WA028900285800000
B2129133943952N10514326WA028910285800000
B2129143943954N10514326WA028910285700000
B2129153943957N10514325WA028900285400000
B2129163943960N10514323WA028870285300000
B2129173943964N10514320WA028870285400000
B2129183943967N10514318WA028880285700000
B2129193943970N10514318WA028900285800000
B2129203943973N10514318WA028920285900000
B2129213943976N10514317WA028940285900000
B2129223943978N10514317WA028950286000000
B2129233943980N10514315WA028960286100000
B2129243943982N10514314WA028980286300000
B2129253943983N10514313WA028990286600000
B2129263943985N10514312WA029000286600000
B2129273943987N10514311WA029020286800000
B2129283943990N10514311WA029040287000000
B2129293943993N10514311WA029050287200000
B2129303943995N10514311WA029070287400000
B2129313943998N10514311WA029090287500000
B2129323944000N10514310WA029100287700000
B2129333944003N10514309WA029110287800000
B2129343944007N10514309WA029140288000000
B2129353944010N10514311WA029150288200000
B2129363944014N10514317WA029170288200000
B2129373944017N10514325WA029170288300000
B2129383944018N10514336WA029190288400000
B2129393944017N10514348WA029200288600000
B2129403944013N10514358WA029210288700000
B2129413944007N10514366WA029230288900000
B2129423944000N10514372WA029240289000000
B2129433943994N10514375WA029250289200000
B2129443943988N10514377WA029270289400000
B2129453943981N10514379WA029280289500000
B2129463943975N10514380WA029310289700000
B2129473943970N10514379WA029320289800000
B2129483943966N10514376WA029340289900000
B2129493943962N10514374WA029350290200000
B2129503943959N10514372WA029380290300000
B2129513943956N10514370WA029400290600000
B2129523943954N10514368WA029420290800000
B2129533943953N10514366WA029430290800000
B2129543943954N10514364WA029440290900000
B2129553943954N10514362WA029440290800000
B2129563943956N10514359WA029440290900000
B2129573943957N10514356WA029440291000000
B2129583943959N10514353WA029440291200000
B2129593943960N10514350WA029460291300000
B2130003943961N10514349WA029490291400000
B2130013943961N10514347WA029510291500000
B2130023943961N10514345WA029520291600000
B2130033943962N10514343WA029520291600000
B2130043943964N10514342WA029520291600000
B2130053943965N10514340WA029510291600000
B2130063943967N10514338WA029500291600000
B2130073943974N10514339WA029510291600000
B2130083943977N10514339WA029510291900000
B2130093943979N10514340WA029530291900000
B2130113943983N10514338WA029540291900000
B2130123943986N10514336WA029540291900000
B2130133943989N10514334WA029530292000000
B2130143943992N10514332WA029530292000000
B2130153943994N10514330WA029520291800000
B2130163943996N10514327WA029520291800000
B2130173943999N10514325WA029520291800000
B2130183944001N10514322WA029520291900000
B2130193944004N10514320WA029520292000000
B2130203944006N10514318WA029520292000000
B2130213944008N10514316WA029520292000000
B2130263944026N10514305WA029520292200000
B2130313944045N10514297WA029640293400000
B2130363944063N10514294WA029700293900000
B2130413944082N10514293WA029730294200000
B2130463944098N10514330WA029780294500000
B2130513944078N10514370WA029810294600000
B2130563944055N10514360WA029850295200000
B2130573944053N10514356WA029860295300000
B2130583944050N10514353WA029860295300000
B2130593944048N10514348WA029870295300000
B2131003944047N10514343WA029880295400000
B2131013944047N10514338WA029890295500000
B2131023944047N10514333WA029920295900000
B2131033944048N10514329WA029950296200000
B2131043944050N10514326WA029980296400000
B2131053944051N10514323WA030000296400000
B2131063944051N10514321WA030010296400000
B2131073944052N10514319WA030010296400000
B2131083944053N10514316WA030000296300000
B2131093944056N10514313WA029990296300000
B2131103944059N10514309WA029980296300000
B2131113944064N10514307WA029970296300000
B2131123944069N10514305WA029980296600000
B2131133944074N10514303WA030010296900000
B2131143944078N10514301WA030040297300000
B2131153944081N10514300WA030080297500000
B2131163944084N10514299WA030100297700000
B2131173944087N10514298WA030130297900000
B2131183944090N10514297WA030140298000000
B2131193944094N10514296WA030140298000000
B2131203944097N10514294WA030150298100000
B2131213944099N10514290WA030150298200000
B2131223944098N10514285WA030160298200000
B2131233944096N10514281WA030170298400000
B2131243944094N10514277WA030180298700000
B2131253944093N10514273WA030200299000000
B2131263944093N10514270WA030230299200000
B2131273944091N10514268WA030260299400000
B2131283944088N10514265WA030280299400000
B2131293944084N10514261WA030280299600000
B2131303944080N10514259WA030290299800000
B2131313944075N10514257WA030300299900000
B2131323944069N10514259WA030320300000000
B2131333944063N10514264WA030320300000000
B2131343944058N10514270WA030330300400000
B2131353944055N10514279WA030350300700000
B2131363944054N10514288WA030380300700000
B2131373944056N10514298WA030390300700000
B2131383944059N10514306WA030400300800000
B2131393944066N10514311WA030410301000000
B2131403944071N10514314WA030430301200000
B2131413944077N10514316WA030440301300000
B2131423944081N10514316WA030450301500000
B2131433944085N10514314WA030460301600000
B2131443944088N10514310WA030480301800000
B2131453944089N10514305WA030490302100000
B2131463944090N10514302WA030520302400000
B2131473944092N10514299WA030550302700000
B2131483944095N10514297WA030570302900000
B2131493944098N10514296WA030590303000000
B2131503944101N10514294WA030610303100000
B2131513944103N10514291WA030630303200000
B2131523944103N10514287WA030640303300000
B2131533944100N10514284WA030640303300000
B2131543944094N10514282WA030650303200000
B2131553944089N10514285WA030640303100000
B2131563944083N10514291WA030650303200000
B2131573944082N10514304WA030660303500000
B2131583944083N10514314WA030680303700000
B2131593944086N10514323WA030700303900000
B2132003944089N10514329WA030720304100000
B2132013944094N10514334WA030740304300000
B2132023944098N10514339WA030760304600000
B2132033944102N10514344WA030780304800000
B2132043944106N10514348WA030800305100000
B2132053944111N10514352WA030820305200000
B2132063944115N10514355WA030850305400000
B2132073944120N10514357WA030860305600000
B2132083944124N10514357WA030890305800000
B2132093944128N10514355WA030900305900000
B2132103944128N10514350WA030910306000000
B2132113944126N10514346WA030920306200000
B2132123944122N10514343WA030940306400000
B2132133944115N10514345WA030960306600000
B2132143944109N10514349WA030980306700000
B2132153944104N10514357WA030990306800000
B2132163944104N10514368WA031030306800000
B2132173944108N10514380WA031040307300000
B2132183944112N10514388WA031070307600000
B2132193944117N10514393WA031090307800000
B2132203944123N10514394WA031110308100000
B2132213944127N10514392WA031130308300000
B2132223944129N10514388WA031140308300000
B2132233944128N10514384WA031160308600000
B2132243944126N10514380WA031170308600000
B2132253944121N10514380WA031180308600000
B2132263944116N10514382WA031200308600000
B2132273944111N10514387WA031210308700000
B2132283944106N10514398WA031230308800000
B2132293944106N10514413WA031250308800000
B2132303944107N10514424WA031280308900000
B2132313944114N10514433WA031300309100000
B2132323944120N10514439WA031340309000000
B2132333944127N10514439WA031370309000000
B2132343944133N10514437WA031410309400000
B2132353944138N10514436WA031430309700000
B2132363944143N10514433WA031450309800000
B2132373944144N10514429WA031450310000000
B2132383944146N10514423WA031470310500000
B2132393944146N10514418WA031490311100000
B2132403944145N10514414WA031530311600000
B2132413944144N10514411WA031560312100000
B2132423944142N10514409WA031600312500000
B2132433944140N10514406WA031630312800000
B2132443944138N10514404WA031660313100000
B2132453944134N10514402WA031670313200000
B2132463944128N10514404WA031690313500000
B2132473944122N10514408WA031700313700000
B2132483944117N10514415WA031710313900000
B2132493944114N10514424WA031730314300000
B2132503944114N10514435WA031750314600000
B2132513944116N10514445WA031770314800000
B2132523944120N10514453WA031790315000000
B2132533944125N10514459WA031820315300000
B2132543944131N10514463WA031840315600000
B2132553944136N10514463WA031870315900000
B2132563944140N10514462WA031890316200000
B2132573944142N10514458WA031920316400000
B2132583944142N10514453WA031930316600000
B2132593944139N10514449WA031950316800000
B2133003944134N10514447WA031960316800000
B2133013944127N10514453WA031980316900000
B2133023944122N10514461WA031990317100000
B2133033944120N10514471WA032000317400000
B2133043944120N10514481WA032010317500000
B2133053944123N10514491WA032040317800000
B2133063944128N10514498WA032050318000000
B2133073944133N10514503WA032090318300000
B2133083944138N10514506WA032110318700000
B2133093944144N10514506WA032140319000000
B2133103944147N10514504WA032160319200000
B2133113944150N10514501WA032190319400000
B2133123944151N10514496WA032200319700000
B2133133944151N10514492WA032230320000000
B2133143944150N10514488WA032250320300000
B2133153944149N10514485WA032270320600000
B2133163944149N10514482WA032300320900000
B2133173944149N10514479WA032320321000000
B2133183944149N10514476WA032340321200000
B2133193944148N10514472WA032360321400000
B2133203944144N10514469WA032370321400000
B2133213944139N10514468WA032370321400000
B2133223944133N10514473WA032380321400000
B2133233944129N10514482WA032390321700000
B2133243944128N10514493WA032390321700000
B2133253944130N10514503WA032390321700000
B2133263944134N10514512WA032400321800000
B2133273944139N10514519WA032410321900000
B2133283944144N10514522WA032440321900000
B2133293944150N10514519WA032480322000000
B2133303944156N10514515WA032510322700000
B2133313944161N10514514WA032560323000000
B2133323944165N10514515WA032580323200000
B2133333944170N10514516WA032600323400000
B2133343944175N10514515WA032600323500000
B2133353944180N10514514WA032620323800000
B2133363944185N10514513WA032640324200000
B2133373944190N10514513WA032670324600000
B2133383944194N10514514WA032690324800000
B2133393944198N10514515WA032720325000000
B2133403944203N10514515WA032730325100000
B2133413944209N10514514WA032740325300000
B2133423944214N10514514WA032760325600000
B2133433944220N10514514WA032780325900000
B2133443944224N10514515WA032800326200000
B2133453944229N10514516WA032830326500000
B2133463944234N10514517WA032860326600000
B2133513944238N10514500WA032900326900000
B2133563944223N10514533WA032980327500000
B2134013944247N10514564WA033090328700000
B2134043944263N10514567WA033140329300000
B2134053944268N10514568WA033160329600000
B2134063944273N10514568WA033170329800000
B2134073944278N10514569WA033190330000000
B2134083944283N10514570WA033210330200000
B2134093944287N10514569WA033230330400000
B2134103944291N10514568WA033240330500000
B2134113944293N10514565WA033250330600000
B2134123944292N10514561WA033250330600000
B2134133944288N10514557WA033260330600000
B2134143944283N10514557WA033260330700000
B2134153944277N10514561WA033270330700000
B2134163944272N10514569WA033270330800000
B2134173944271N10514581WA033270330800000
B2134183944272N10514592WA033280330900000
B2134193944277N10514602WA033280330900000
B2134203944283N10514608WA033290331000000
B2134213944290N10514611WA033300331200000
B2134223944297N10514613WA033320331400000
B2134233944302N10514616WA033340331700000
B2134243944307N10514619WA033360331900000
B2134253944312N10514621WA033370332000000
B2134263944318N10514623WA033380332000000
B2134273944324N10514623WA033390332100000
B2134283944331N10514624WA033400332300000
B2134293944338N10514624WA033410332600000
B2134303944343N10514625WA033440333000000
B2134313944349N10514627WA033470333200000
B2134323944354N10514629WA033490333400000
B2134333944359N10514630WA033510333600000
B2134343944364N10514631WA033530333700000
B2134353944369N10514632WA033550333900000
B2134363944374N10514632WA033560334000000
B2134373944379N10514633WA033580334200000
B2134383944384N10514633WA033590334400000
B2134393944387N10514631WA033600334500000
B2134403944389N10514627WA033610334500000
B2134413944390N10514622WA033630334700000
B2134423944389N10514618WA033640335000000
B2134433944388N10514616WA033660335200000
B2134443944384N10514615WA033680335300000
B2134453944379N10514617WA033680335300000
B2134463944373N10514622WA033670335200000
B2134473944367N10514628WA033670335200000
B2134483944364N10514638WA033670335200000
B2134493944368N10514654WA033680335400000
B2134503944370N10514667WA033700335500000
B2134513944377N10514674WA033710335900000
B2134523944383N10514680WA033750336200000
B2134533944389N10514684WA033770336300000
B2134543944394N10514687WA033800336700000
B2134553944398N10514692WA033810336900000
B2134563944403N10514696WA033830337000000
B2134573944407N10514701WA033840337100000
B2134583944413N10514704WA033850337100000
B2134593944418N10514706WA033860337200000
B2135003944423N10514706WA033880337400000
B2135013944427N10514705WA033890337600000
B2135023944428N10514701WA033910337700000
B2135033944428N10514698WA033920337700000
B2135043944424N10514695WA033920337800000
B2135053944418N10514696WA033930337900000
B2135063944412N10514700WA033940338100000
B2135073944407N10514707WA033940338100000
B2135083944403N10514717WA033950338300000
B2135093944401N10514727WA033970338400000
B2135103944400N10514737WA033990338400000
B2135113944402N10514747WA034000338500000
B2135123944406N10514756WA034010338600000
B2135133944411N10514763WA034020338600000
B2135143944417N10514768WA034020338700000
B2135153944422N10514770WA034020338900000
B2135163944427N10514771WA034030339100000
B2135173944432N10514772WA034060339300000
B2135183944437N10514773WA034070339400000
B2135193944441N10514775WA034080339500000
B2135203944446N10514776WA034090339700000
B2135213944451N10514778WA034110339800000
B2135223944455N10514779WA034120339900000
B2135233944460N10514780WA034140340200000
B2135243944465N10514782WA034160340400000
B2135253944470N10514783WA034180340600000
B2135263944475N10514785WA034200340800000
B2135273944481N10514786WA034220341100000
B2135283944486N10514788WA034240341500000
B2135293944491N10514791WA034270341700000
B2135343944511N10514803WA034290341900000
B2135393944519N10514792WA034150340600000
B2135443944511N10514782WA034110340100000
B2135493944491N10514787WA034030339200000
B2135523944479N10514819WA033980338900000
B2135533944480N10514830WA033970338700000
B2135543944484N10514840WA033950338500000
B2135553944489N10514847WA033930338400000
B2135563944494N10514852WA033930338300000
B2135573944499N10514855WA033910338100000
B2135583944505N10514857WA033890337900000
B2135593944510N10514859WA033870337700000
B2136003944516N10514861WA033850337500000
B2136013944521N10514864WA033820337200000
B2136023944528N10514866WA033800337000000
B2136033944534N10514867WA033780336900000
B2136043944539N10514866WA033770336700000
B2136053944545N10514866WA033760336600000
B2136063944550N10514866WA033750336400000
B2136073944557N10514867WA033740336200000
B2136083944564N10514869WA033720336100000
B2136093944571N10514871WA033710336000000
B2136103944577N10514871WA033710335900000
B2136113944584N10514872WA033700335800000
B2136123944590N10514873WA033680335600000
B2136133944596N10514874WA033670335400000
B2136143944603N10514876WA033640335200000
B2136153944610N10514877WA033630335100000
B2136163944617N10514879WA033620335000000
B2136213944650N10514884WA033590334600000
B2136263944684N10514888WA033520334100000
B2136313944715N10514894WA033420333100000
B2136363944745N10514901WA033320331900000
B2136413944776N10514909WA033230330900000
B2136463944807N10514920WA033100329900000
B2136513944837N10514928WA032950328400000
B2136563944866N10514935WA032830327200000
B2137013944896N10514935WA032690325700000
B2137063944926N10514933WA032570324400000
B2137113944951N10514932WA032560324200000
B2137173944985N10514928WA032430323500000
B2137223945014N10514936WA032400322600000
B2137273945048N10514946WA032300321700000
B2137323945079N10514966WA032200320500000
B2137373945116N10514981WA032050318800000
B2137423945144N10514996WA031980318100000
B2137473945171N10515002WA031810316500000
B2137523945195N10514996WA031680314800000
B2137573945221N10514993WA031610314100000
B2138023945247N10514986WA031490312900000
B2138073945271N10514983WA031430312200000
B2138123945295N10514973WA031360311600000
B2138183945320N10514966WA031350311300000
B2138233945347N10514961WA031330311300000
B2138283945371N10514957WA031280310600000
B2138333945396N10514952WA031220309900000
B2138383945423N10514947WA031180309600000
B2138433945450N10514941WA031120308900000
B2138483945477N10514937WA031090308500000
B2138533945506N10514933WA031040308100000
B2138583945536N10514930WA031020307900000
B2139033945572N10514945WA030910306900000
B2139093945615N10514959WA030790305700000
B2139143945645N10514969WA030720304900000
B2139203945680N10514973WA030620303800000
B2139263945717N10514985WA030510303000000
B2139313945749N10514996WA030420302100000
B2139363945780N10515001WA030280300600000
B2139413945807N10515000WA030090298200000
B2139463945830N10514994WA029960296900000
B2139513945853N10514980WA029830295700000
B2139563945873N10514970WA029680294100000
B2140013945895N10514957WA029600293000000
B2140063945916N10514945WA029490292000000
B2140113945941N10514931WA029370290900000
B2140163945960N10514922WA029230290200000
B2140213945983N10514908WA029130288800000
B2140263946008N10514899WA028960286900000
B2140323946045N10514901WA028790285200000
B2140373946073N10514900WA028690283800000
B2140423946102N10514905WA028610282600000
B2140473946130N10514898WA028510281800000
B2140523946147N10514885WA028450280900000
B2140573946157N10514863WA028350280000000
B2141023946164N10514842WA028240278700000
B2141073946170N10514818WA028110277100000
B2141123946165N10514794WA027970275800000
B2141173946158N10514771WA027840274300000
B2141223946148N10514751WA027710272900000
B2141273946132N10514729WA027590271700000
B2141323946113N10514710WA027460270200000
B2141373946092N10514691WA027350269100000
B2141423946069N10514674WA027210267600000
B2141473946047N10514658WA027130266700000
B2141523946022N10514643WA027010265500000
B2141573945997N10514628WA026890264400000
B2142023945974N10514610WA026770263100000
B2142073945955N10514593WA026720262600000
B2142123945934N10514574WA026580261300000
B2142173945914N10514565WA026500260100000
B2142223945891N10514545WA026490260300000
B2142273945873N10514537WA026440259600000
B2142323945855N10514515WA026340258600000
B2142373945837N10514497WA026290257900000
B2142423945829N10514474WA026180256700000
B2142473945817N10514451WA026070255600000
B2142523945800N10514435WA026000254900000
B2142573945776N10514424WA025890253500000
B2143023945750N10514416WA025760252600000
B2143073945726N10514412WA025710251700000
B2143123945700N10514398WA025540250300000
B2143173945676N10514388WA025440249100000
B2143223945660N10514374WA025310247600000
B2143273945645N10514361WA025200246300000
B2143323945624N10514349WA025050244900000
B2143373945598N10514344WA024910243400000
B2143423945571N10514338WA024790242200000
B2143473945542N10514332WA024650240700000
B2143523945508N10514333WA024560239700000
B2143573945477N10514331WA024480238800000
B2144023945446N10514326WA024420238300000
B2144073945416N10514328WA024310237000000
B2144123945386N10514334WA024220235900000
B2144173945357N10514338WA024120235100000
B2144223945328N10514333WA023980233600000
B2144273945305N10514326WA023960233200000
B2144323945286N10514319WA023890232500000
B2144373945268N10514314WA023820231800000
B2144423945252N10514300WA023750231000000
B2144473945231N10514290WA023730230600000
B2144523945210N10514287WA023690230200000
B2144573945197N10514277WA023670230200000
B2145023945186N10514266WA023620229600000
B2145073945169N10514258WA023590229200000
B2145123945158N10514237WA023470228100000
B2145173945150N10514224WA023480227900000
B2145223945150N10514204WA023360227100000
B2145273945156N10514184WA023380226900000
B2145323945157N10514172WA023380226900000
B2145373945161N10514160WA023350226700000
B2145423945151N10514148WA023230225700000
B2145473945131N10514146WA023190225000000
B2145523945106N10514152WA023180224800000
B2145573945082N10514152WA023130224400000
B2146023945057N10514158WA023120224100000
B2146073945034N10514159WA023100224200000
B2146123945014N10514154WA023140224500000
B2146173944995N10514152WA023130224400000
B2146223944973N10514148WA023180224900000
B2146273944956N10514144WA023340226600000
B2146323944941N10514139WA023490228100000
B2146373944955N10514131WA023590229100000
B2146423944969N10514174WA023650229700000
B2146473944942N10514188WA023770231100000
B2146483944938N10514188WA023810231400000
B2146493944935N10514188WA023840231700000
B2146503944931N10514188WA023870232000000
B2146513944929N10514187WA023890232100000
B2146523944928N10514184WA023910232200000
B2146533944929N10514180WA023910232300000
B2146543944931N10514176WA023920232500000
B2146553944933N10514172WA023930232800000
B2146563944935N10514168WA023960233000000
B2146573944936N10514165WA023970233200000
B2146583944936N10514162WA024000233400000
B2146593944936N10514159WA024010233500000
B2147003944936N10514156WA024020233600000
B2147013944935N10514153WA024020233800000
B2147023944936N10514149WA024040233900000
B2147033944938N10514146WA024040234000000
B2147043944942N10514145WA024050234000000
B2147053944947N10514145WA024060234100000
B2147063944953N10514147WA024080234300000
B2147073944959N10514152WA024090234400000
B2147083944964N10514159WA024100234600000
B2147093944968N10514168WA024110234600000
B2147103944970N10514178WA024130234700000
B2147113944970N10514189WA024140234800000
B2147123944967N10514199WA024150234900000
B2147133944962N10514205WA024150235100000
B2147143944957N10514208WA024170235200000
B2147153944951N10514208WA024190235500000
B2147163944947N10514207WA024220235700000
B2147173944943N10514207WA024250236000000
B2147183944939N10514207WA024280236300000
B2147193944935N10514208WA024290236500000
B2147203944932N10514208WA024310236600000
B2147213944928N10514207WA024320236700000
B2147223944926N10514205WA024310236700000
B2147233944924N10514201WA024310236700000
B2147243944924N10514197WA024320236900000
B2147253944924N10514193WA024330237100000
B2147263944925N10514190WA024370237400000
B2147273944927N10514188WA024380237600000
B2147283944928N10514187WA024410237800000
B2147293944930N10514185WA024420237900000
B2147303944931N10514183WA024430238100000
B2147313944934N10514180WA024440238200000
B2147323944938N10514179WA024460238400000
B2147333944942N10514178WA024480238700000
B2147343944945N10514178WA024510239100000
B2147353944948N10514177WA024530239300000
B2147363944950N10514175WA024560239500000
B2147373944953N10514175WA024580239700000
B2147383944957N10514174WA024600239800000
B2147393944961N10514175WA024610239900000
B2147403944966N10514179WA024630240000000
B2147413944972N10514185WA024640240100000
B2147423944976N10514193WA024660240300000
B2147433944980N10514202WA024670240500000
B2147443944980N10514213WA024690240700000
B2147453944979N10514225WA024700240800000
B2147463944975N10514233WA024720241000000
B2147473944970N10514239WA024730241100000
B2147483944965N10514242WA024750241300000
B2147493944960N10514242WA024760241400000
B2147503944956N10514240WA024770241600000
B2147513944955N10514236WA024790241800000
B2147523944955N10514233WA024820242100000
B2147533944957N10514231WA024840242400000
B2147543944958N10514229WA024870242700000
B2147553944959N10514228WA024890242800000
B2147563944959N10514226WA024910242900000
B2147573944961N10514224WA024920243000000
B2147583944965N10514222WA024930243200000
B2147593944969N10514222WA024940243300000
B2148003944974N10514223WA024950243400000
B2148013944980N10514229WA024970243600000
B2148023944985N10514236WA024980243600000
B2148033944988N10514247WA024990243600000
B2148043944990N10514259WA025000243700000
B2148053944988N10514271WA025020244000000
B2148063944983N10514280WA025040244200000
B2148073944977N10514286WA025050244400000
B2148083944972N10514288WA025060244500000
B2148093944967N10514290WA025070244600000
B2148103944961N10514292WA025080244800000
B2148113944955N10514296WA025110245000000
B2148123944950N10514299WA025120245300000
B2148133944945N10514301WA025150245400000
B2148143944941N10514301WA025160245500000
B2148153944939N10514299WA025180245700000
B2148163944938N10514297WA025190245900000
B2148173944940N10514295WA025210246000000
B2148183944943N10514294WA025220246200000
B2148193944947N10514295WA025230246200000
B2148203944953N10514299WA025230246300000
B2148213944959N10514307WA025240246200000
B2148223944963N10514318WA025240246300000
B2148233944966N10514329WA025250246300000
B2148243944966N10514339WA025250246500000
B2148253944959N10514349WA025250246300000
B2148263944949N10514350WA025260246500000
B2148273944942N10514352WA025280246800000
B2148283944938N10514351WA025300247100000
B2148293944933N10514351WA025330247500000
B2148303944930N10514351WA025360247700000
B2148313944926N10514352WA025370247900000
B2148323944922N10514353WA025380248000000
B2148333944918N10514354WA025390248100000
B2148343944913N10514354WA025400248200000
B2148353944909N10514355WA025410248300000
B2148363944906N10514356WA025410248300000
B2148373944902N10514358WA025410248300000
B2148383944898N10514360WA025400248200000
B2148393944895N10514360WA025390248200000
B2148403944892N10514360WA025380248100000
B2148413944891N10514358WA025360248000000
B2148423944891N10514355WA025350247900000
B2148433944891N10514353WA025350247900000
B2148443944892N10514351WA025350248000000
B2148453944894N10514351WA025350247900000
B2148463944898N10514352WA025340247800000
B2148473944903N10514352WA025310247400000
B2148483944908N10514351WA025300247300000
B2148493944913N10514350WA025290247300000
B2148503944916N10514347WA025300247400000
B2148513944918N10514345WA025300247400000
B2148523944920N10514342WA025310247400000
B2148533944921N10514340WA025300247400000
B2148543944924N10514337WA025300247400000
B2148553944926N10514334WA025300247300000
B2148563944927N10514331WA025300247200000
B2148573944927N10514327WA025290247200000
B2148583944927N10514324WA025290247200000
B2148593944926N10514321WA025290247200000
B2149003944925N10514318WA025290247200000
B2149013944924N10514315WA025280247100000
B2149023944923N10514312WA025260247100000
B2149033944922N10514308WA025240247000000
B2149043944921N10514304WA025240246900000
B2149053944920N10514300WA025220246700000
B2149063944919N10514296WA025210246600000
B2149073944919N10514291WA025190246500000
B2149083944919N10514285WA025180246500000
B2149093944918N10514281WA025180246500000
B2149103944918N10514276WA025180246400000
B2149113944918N10514272WA025180246400000
B2149123944917N10514268WA025180246300000
B2149173944914N10514247WA025120245800000
B2149223944906N10514228WA025070245200000
B2149273944897N10514208WA025020244500000
B2149323944886N10514189WA024980244000000
B2149373944873N10514171WA024940243600000
B2149423944858N10514155WA024890243000000
B2149473944847N10514136WA024860242800000
B2149523944840N10514116WA024800242200000
B2149573944834N10514097WA024770241700000
B2150023944835N10514075WA024680240900000
B2150073944832N10514057WA024610240200000
B2150123944829N10514041WA024570239700000
B2150173944822N10514021WA024470238800000
B2150223944805N10514016WA024450238300000
B2150273944784N10514010WA024360237600000
B2150323944768N10514001WA024310237000000
B2150373944752N10513988WA024230236400000
B2150423944729N10513988WA024170235700000
B2150473944706N10513991WA024160235600000
B2150523944678N10513993WA024130235300000
B2150573944652N10513992WA024170235500000
B2151023944628N10513991WA024180235800000
B2151073944601N10513997WA024190236000000
B2151123944575N10513998WA024200235900000
B2151173944554N10514000WA024230236200000
B2151223944532N10514003WA024210235900000
B2151273944506N10514007WA024190235800000
B2151323944481N10514007WA024200236100000
B2151373944460N10514009WA024190235800000
B2151423944434N10514008WA024200236000000
B2151473944413N10514009WA024220236200000
B2151523944395N10514008WA024250236500000
B2151573944372N10514004WA024200236100000
B2152023944358N10514005WA024290236700000
B2152073944341N10513995WA024280237000000
B2152123944325N10513991WA024330237300000
B2152173944313N10513987WA024380237700000
B2152223944296N10513991WA024430238100000
B2152273944283N10513987WA024470238700000
B2152323944285N10513974WA024550239600000
B2152373944301N10513975WA024580239600000
B2152423944328N10514012WA024560239600000
B2152433944330N10514024WA024560239600000
B2152443944329N10514036WA024560239400000
B2152453944326N10514047WA024550239300000
B2152463944322N10514056WA024540239100000
B2152473944317N10514061WA024520239000000
B2152483944311N10514065WA024520239200000
B2152493944306N10514068WA024530239300000
B2152503944302N10514070WA024550239500000
B2152513944299N10514072WA024570239700000
B2152523944297N10514072WA024580239700000
B2152533944294N10514073WA024590239600000
B2152543944291N10514072WA024580239600000
B2152553944287N10514071WA024570239600000
B2152563944283N10514070WA024580239800000
B2152573944279N10514069WA024600240000000
B2152583944277N10514068WA024620240300000
B2152593944274N10514067WA024650240500000
B2153003944272N10514066WA024670240700000
B2153013944269N10514064WA024690240800000
B2153023944266N10514063WA024700240900000
B2153033944263N10514062WA024710241100000
B2153043944260N10514062WA024720241200000
B2153053944257N10514062WA024730241200000
B2153063944255N10514061WA024740241200000
B2153073944253N10514059WA024740241100000
B2153083944252N10514056WA024730241100000
B2153093944249N10514054WA024720241100000
B2153103944246N10514052WA024720241200000
B2153113944243N10514051WA024720241300000
B2153123944240N10514050WA024730241300000
B2153133944237N10514047WA024730241300000
B2153143944235N10514045WA024720241200000
B2153153944231N10514043WA024720241100000
B2153163944227N10514041WA024720241100000
B2153173944223N10514039WA024720241300000
B2153183944220N10514037WA024720241300000
B2153193944217N10514035WA024730241300000
B2153243944202N10514029WA024790242000000
B2153293944191N10514025WA024800241800000
B2153343944178N10514018WA024810242100000
B2153393944162N10514016WA024870242700000
B2153443944147N10514016WA024950243600000
B2153493944137N10514008WA024970243800000
B2153543944124N10514001WA024990244300000
B2153593944117N10513991WA025030244500000
B2154043944115N10513977WA024900243400000
B2154093944104N10513972WA024900243200000
B2154143944086N10513960WA024880243300000
B2154193944075N10513955WA024900243100000
B2154243944067N10513941WA024920243500000
B2154293944052N10513934WA024930243700000
B2154343944037N10513929WA024940243600000
B2154393944020N10513921WA024940243600000
B2154443944003N10513909WA024980244000000
B2154493943989N10513905WA025030244400000
B2154543943971N10513894WA025070245000000
B2154593943958N10513885WA025150245800000
B2155043943943N10513876WA025250246900000
B2155093943927N10513866WA025330247900000
B2155143943917N10513859WA025360248000000
B2155193943935N10513862WA025320247800000
B2155243943950N10513907WA025320247500000
B2155293943933N10513953WA025300247200000
B2155303943928N10513955WA025300247300000
B2155313943924N10513955WA025300247200000
B2155323943921N10513953WA025280247200000
B2155333943918N10513950WA025280247100000
B2155343943915N10513948WA025280247100000
B2155353943911N10513946WA025280247100000
B2155363943907N10513945WA025280247200000
B2155373943903N10513944WA025290247300000
B2155383943901N10513942WA025300247400000
B2155393943899N10513940WA025310247600000
B2155403943897N10513938WA025320247700000
B2155413943896N10513936WA025340247800000
B2155423943894N10513934WA025350247800000
B2155433943893N10513933WA025350247800000
B2155443943892N10513931WA025350247800000
B2155453943891N10513928WA025330247700000
B2155463943890N10513925WA025320247600000
B2155473943889N10513922WA025320247600000
B2155483943887N10513919WA025320247600000
B2155493943886N10513916WA025320247700000
B2155503943883N10513914WA025330247700000
B2155513943882N10513911WA025320247700000
B2155523943879N10513908WA025320247600000
B2155533943877N10513905WA025320247500000
B2155543943874N10513902WA025320247500000
B2155553943870N10513899WA025320247600000
B2155563943866N10513896WA025330247800000
B2155573943862N10513893WA025350248000000
B2155583943859N10513890WA025380248300000
B2156033943843N10513874WA025480249300000
B2156083943827N10513862WA025580250200000
B2156133943829N10513845WA025660251000000
B2156183943852N10513867WA025700251400000
B2156233943843N10513916WA025740251800000
B2156243943838N10513920WA025750251800000
B2156253943833N10513917WA025760251900000
B2156263943830N10513915WA025770251900000
B2156273943831N10513909WA025780252100000
B2156283943833N10513905WA025800252300000
B2156293943837N10513904WA025820252600000
B2156303943841N10513907WA025850252800000
B2156313943846N10513912WA025860252800000
B2156323943851N10513919WA025860252700000
B2156333943855N10513929WA025860252700000
B2156343943857N10513941WA025860252700000
B2156353943855N10513954WA025850252600000
B2156363943849N10513964WA025840252400000
B2156373943842N10513970WA025820252500000
B2156383943835N10513971WA025830252600000
B2156393943829N10513970WA025860253000000
B2156403943825N10513967WA025880253300000
B2156413943822N10513965WA025920253600000
B2156423943819N10513964WA025930253800000
B2156433943816N10513962WA025960254000000
B2156443943813N10513961WA025980254100000
B2156453943811N10513959WA026000254300000
B2156463943810N10513957WA026000254300000
B2156473943811N10513954WA026000254300000
B2156483943812N10513952WA026000254300000
B2156493943814N10513950WA026000254400000
B2156503943816N10513948WA026000254500000
B2156513943817N10513947WA026010254600000
B2156523943817N10513945WA026010254500000
B2156533943817N10513942WA026010254600000
B2156543943817N10513939WA026010254600000
B2156553943816N10513936WA026030254700000
B2156563943814N10513934WA026040254900000
B2156573943813N10513932WA026050255000000
B2156583943811N10513930WA026070255100000
B2156593943809N10513928WA026070255100000
B2157003943807N10513927WA026070255100000
B2157013943806N10513926WA026070255100000
B2157023943804N10513924WA026070255100000
B2157033943799N10513923WA026070255200000
B2157043943795N10513924WA026070255300000
B2157053943791N10513925WA026080255400000
B2157063943787N10513927WA026080255400000
B2157073943782N10513928WA026080255400000
B2157083943777N10513928WA026080255300000
B2157093943772N10513929WA026080255300000
B2157103943767N10513931WA026080255400000
B2157113943762N10513933WA026080255500000
B2157123943758N10513936WA026080255600000
B2157133943754N10513941WA026090255500000
B2157143943749N10513948WA026080255400000
B2157153943746N10513957WA026060255200000
B2157163943743N10513967WA026050255200000
B2157173943742N10513978WA026040255200000
B2157183943744N10513988WA026040255100000
B2157193943747N10513996WA026030255000000
B2157203943752N10514002WA026020254900000
B2157213943758N10514005WA026020254900000
B2157223943763N10514007WA026010254900000
B2157233943768N10514009WA026010254900000
B2157243943773N10514012WA026020254900000
B2157253943778N10514015WA026010254900000
B2157263943782N10514018WA026010254800000
B2157273943787N10514020WA026010254700000
B2157283943792N10514022WA026000254600000
B2157293943796N10514022WA025990254500000
B2157303943801N10514022WA025990254500000
B2157313943806N10514022WA025990254500000
B2157323943810N10514022WA025980254400000
B2157333943815N10514023WA025980254300000
B2157343943819N10514023WA025960254100000
B2157353943824N10514023WA025950254000000
B2157363943828N10514023WA025940254000000
B2157373943833N10514023WA025940254000000
B2157383943837N10514023WA025930253900000
B2157393943841N10514022WA025930253900000
B2157403943845N10514021WA025920253800000
B2157413943849N10514020WA025930254000000
B2157463943869N10514015WA025980254400000
B2157513943881N10514000WA026020255000000
B2157563943886N10513990WA026120255700000
B2158013943873N10513986WA026090255400000
B2158063943855N10514025WA026100255800000
B2158113943871N10514066WA026140256100000
B2158123943875N10514072WA026160256300000
B2158133943880N10514076WA026170256400000
B2158143943884N10514078WA026180256400000
B2158153943888N10514079WA026180256400000
B2158163943891N10514078WA026170256400000
B2158173943893N10514075WA026170256400000
B2158183943893N10514072WA026170256400000
B2158193943892N10514069WA026170256400000
B2158203943889N10514068WA026180256500000
B2158213943885N10514068WA026180256500000
B2158223943881N10514070WA026190256600000
B2158233943876N10514074WA026200256600000
B2158243943871N10514081WA026200256600000
B2158253943867N10514090WA026200256700000
B2158263943864N10514099WA026210256800000
B2158273943863N10514110WA026210256700000
B2158283943865N10514120WA026210256700000
B2158293943869N10514130WA026210256700000
B2158303943874N10514137WA026220256800000
B2158313943879N10514141WA026220257000000
B2158323943884N10514144WA026240257100000
B2158333943888N10514144WA026250257200000
B2158343943892N10514146WA026270257400000
B2158353943896N10514148WA026280257500000
B2158363943900N10514149WA026290257500000
B2158373943904N10514151WA026290257500000
B2158383943907N10514150WA026280257400000
B2158393943909N10514148WA026270257300000
B2158403943909N10514144WA026260257200000
B2158413943906N10514141WA026250257100000
B2158423943902N10514140WA026240257000000
B2158433943898N10514140WA026230257000000
B2158443943891N10514147WA026220256800000
B2158453943886N10514156WA026210256700000
B2158463943883N10514167WA026200256700000
B2158473943882N10514180WA026210256800000
B2158483943884N10514192WA026210256800000
B2158493943888N10514201WA026220256900000
B2158503943893N10514209WA026230257100000
B2158513943898N10514214WA026240257200000
B2158523943902N10514219WA026250257300000
B2158533943907N10514224WA026250257300000
B2158543943912N10514229WA026250257300000
B2158553943917N10514233WA026250257300000
B2158563943922N10514237WA026260257400000
B2158573943927N10514240WA026280257600000
B2158583943931N10514241WA026280257600000
B2158593943934N10514243WA026280257600000
B2159003943938N10514245WA026280257400000
B2159013943941N10514246WA026270257200000
B2159023943946N10514246WA026240256900000
B2159033943952N10514245WA026220256800000
B2159043943958N10514244WA026200256800000
B2159053943963N10514244WA026200257000000
B2159063943968N10514244WA026210257000000
B2159073943972N10514243WA026210257000000
B2159083943975N10514243WA026210256800000
B2159093943979N10514243WA026200256700000
B2159103943985N10514242WA026170256500000
B2159113943990N10514242WA026160256400000
B2159123943995N10514241WA026150256400000
B2159133944000N10514241WA026150256500000
B2159143944004N10514241WA026160256500000
B2159153944009N10514242WA026160256400000
B2159203944032N10514240WA026130256000000
B2159253944056N10514240WA026120255900000
B2159303944078N10514240WA026050255200000
B2159353944100N10514232WA026010254800000
B2159403944125N10514227WA025950254100000
B2159453944148N10514226WA025910253500000
B2159503944165N10514220WA025870252900000
B2159553944185N10514215WA025840252800000
B2200003944205N10514212WA025810252400000
B2200053944227N10514210WA025770252100000
B2200103944248N10514208WA025750251900000
B2200153944270N10514207WA025710251200000
B2200203944290N10514201WA025670250900000
B2200253944311N10514197WA025670250800000
B2200303944330N10514191WA025650250600000
B2200353944350N10514186WA025640250500000
B2200403944375N10514188WA025620250600000
B2200453944395N10514183WA025630250700000
B2200503944414N10514176WA025600250300000
B2200553944432N10514167WA025570250100000
B2201003944446N10514154WA025550249600000
B2201053944463N10514143WA025510249300000
B2201103944484N10514137WA025470248800000
B2201153944505N10514131WA025470248700000
B2201203944525N10514123WA025460248700000
B2201253944542N10514112WA025420248300000
B2201303944557N10514096WA025380247900000
B2201353944577N10514079WA025320247400000
B2201403944589N10514067WA025360247700000
B2201453944594N10514052WA025310247200000
B2201503944601N10514036WA025260246700000
B2201553944611N10514021WA025240246500000
B2202003944626N10514008WA025180246000000
B2202053944641N10513995WA025130245400000
B2202103944655N10513983WA025100245000000
B2202153944666N10513967WA025010244000000
B2202203944676N10513947WA025010244100000
B2202253944682N10513930WA024930243300000
B2202303944691N10513918WA025020244000000
B2202353944689N10513902WA025010243900000
B2202403944682N10513888WA025040243900000
B2202453944669N10513876WA025040244100000
B2202503944664N10513857WA025010243700000
B2202553944667N10513838WA025010243700000
B2203003944674N10513816WA024980243600000
B2203053944672N10513801WA025000243600000
B2203103944678N10513787WA024980243600000
B2203153944689N10513774WA024940243100000
B2203203944706N10513769WA024900242600000
B2203253944726N10513767WA024840242100000
B2203303944738N10513758WA024780241400000
B2203353944744N10513744WA024690240800000
B2203403944756N10513735WA024660240600000
B2203453944770N10513727WA024610240000000
B2203503944782N10513721WA024580239600000
B2203553944794N10513713WA024520239100000
B2204003944807N10513706WA024430238200000
B2204053944824N10513695WA024340237200000
B2204103944845N10513686WA024320236900000
B2204153944863N10513680WA024330236800000
B2204203944882N10513675WA024330236800000
