AFLY01Ci 04632
HFDTE110515
HFFXA010
HFPLTPILOT:j.hildebrand    
HFGTYGLIDERTYPE:PG              
HFGIDGLIDERID:not-set         
HFDTM100GPSDATUM:WGS84
HFRFWFIRMWAREVERSION: 1.3.07  Eng
HFRHWHARDWAREVERSION:1.00
HFFTYFRTYPE:Flytec,6015
HFGPS:FASTRAX,IT430,48
HFPRSPRESSALTSENSOR:INTERSEMA,MS5401BM,12000
HFTZNUTCOFFSET: -6
I033638FXA3940SIU4143TAS
F23523801040611131728
B2352384003379N10517988WA018340191100807000
F2353080104061113172830
B2353084003381N10517989WA018340191200708000
F2353380104061113172830
B2353384003384N10517991WA018340191500908000
F235408010611172830
B2354084003384N10517991WA018340191600806000
F23543801061113172830
B2354384003382N10517991WA018340191300707000
F23550801061113172830
B2355084003376N10517988WA018320191200907000
F23553801061113172830
B2355384003376N10517989WA018320191001007000
F23560801061113172830
B2356084003376N10517989WA018330190901007000
F23563801061113172830
B2356384003376N10517991WA018320190801007000
E235705STA
E235705ATS1022.8
LFLYA101904
B2357054003357N10517968WA018260190901707000
B2357104003329N10517958WA018270190701307000
B2357154003303N10517953WA018340190901007000
B2357204003275N10517967WA018360191101307000
B2357254003249N10517972WA018420191501107000
B2357304003233N10517964WA018460191901007000
B2357354003249N10517954WA018470192301207000
B2357404003269N10517958WA018470192600907000
B2357454003292N10517965WA018450192600807000
B2357504003287N10517950WA018430192400907000
B2357554003260N10517959WA018390192200807000
B2358004003234N10517953WA018370192101007000
B2358054003210N10517937WA018330191900507000
B2358104003187N10517917WA018310191800707000
B2358154003163N10517911WA018340191700907000
B2358204003141N10517904WA018310191400507000
B2358254003134N10517880WA018320191400807000
B2358304003115N10517871WA018340191400707000
B2358354003090N10517870WA018350191400707000
B2358404003099N10517858WA018320191400907000
B2358454003121N10517864WA018390191501107000
B2358504003123N10517847WA018390191501207000
B2358554003096N10517854WA018380191600707000
F2359000106111315172830
B2359004003097N10517893WA018380191401608000
B2359054003120N10517888WA018380191500708000
B2359104003138N10517883WA018430191801008000
B2359154003155N10517892WA018360191600708000
B2359204003134N10517884WA018340191300808000
F23592501061113172830
B2359254003105N10517885WA018380191500907000
F2359300106111315172830
B2359304003101N10517866WA018340191601208000
B2359354003125N10517872WA018290191600708000
B2359404003150N10517873WA018240191000608000
B2359454003174N10517873WA018180190300708000
F23595001061113151728
B2359504003198N10517877WA018160189900607000
F2359550106111315172830
B2359554003222N10517887WA018170189800508000
B0000004003246N10517895WA018170189800708000
F000005010306111315172830
B0000054003270N10517897WA018200190000809000
B0000104003292N10517916WA018260190400509000
F0000150103061113172830
B0000154003312N10517921WA018290190500708000
F000020010306111315172830
B0000204003292N10517916WA018310190700709000
B0000254003263N10517938WA018320190900609000
B0000304003237N10517954WA018380191300609000
B0000354003218N10517948WA018350191300709000
B0000404003240N10517942WA018340191400909000
B0000454003264N10517948WA018380191500609000
B0000504003290N10517957WA018380191600909000
B0000554003299N10517950WA018400191700609000
B0001004003281N10517941WA018280191400709000
B0001054003253N10517955WA018240191000609000
B0001104003231N10517947WA018280191000709000
B0001154003210N10517940WA018290191000709000
B0001204003204N10517923WA018310191100509000
B0001254003204N10517907WA018320191200409000
B0001304003181N10517912WA018310191100409000
B0001354003154N10517919WA018320191100309000
B0001404003156N10517907WA018280190900809000
B0001454003178N10517911WA018250190700809000
B0001504003201N10517925WA018290190900509000
B0001554003224N10517937WA018320191300609000
B0002004003247N10517948WA018340191700609000
B0002054003266N10517949WA018350191800709000
B0002104003285N10517949WA018350191600409000
B0002154003280N10517932WA018350191500409000
B0002204003254N10517940WA018350191500409000
B0002254003226N10517948WA018390191800509000
B0002304003204N10517969WA018450192200309000
B0002354003193N10517962WA018470192400709000
B0002404003214N10517968WA018530192800809000
B0002454003237N10517978WA018590193500809000
B0002504003253N10517974WA018620193900609000
F00025501030611131517242830
B0002554003238N10517965WA018660194100710000
B0003004003213N10517986WA018710194500610000
B0003054003198N10517986WA018670194900610000
B0003104003221N10517983WA018630194800910000
B0003154003248N10517988WA018650194800510000
B0003204003270N10517995WA018700195000710000
B0003254003263N10517980WA018740195200610000
B0003304003241N10517998WA018710195200510000
B0003354003229N10517990WA018670195100610000
B0003404003255N10517983WA018600194700710000
B0003454003283N10517979WA018630194800610000
B0003504003309N10517990WA018700195100610000
B0003554003316N10517976WA018710195100610000
B0004004003294N10517988WA018740195300410000
B0004054003275N10518007WA018800195700510000
B0004104003264N10518003WA018760195700810000
B0004154003288N10518005WA018800196000610000
B0004204003315N10518008WA018840196500610000
B0004254003342N10518016WA018880197000510000
B0004304003362N10518018WA018930197400410000
B0004354003352N10518009WA018950197500410000
B0004404003326N10518018WA018990197800410000
B0004454003300N10518023WA019040198300310000
B0004504003276N10518032WA019080198700410000
B0004554003264N10518022WA019080199000610000
B0005004003290N10518023WA019080199000510000
B0005054003317N10518033WA019110199200410000
F000510010306111517242830
B0005104003345N10518039WA019180199700709000
F00051501030611131517242830
B0005154003375N10518047WA019240200400510000
B0005204003388N10518039WA019210200500610000
B0005254003371N10518038WA019240200600410000
B0005304003350N10518036WA019270200800410000
B0005354003329N10518033WA019270200900410000
B0005404003306N10518032WA019260201000410000
B0005454003279N10518031WA019190200800410000
B0005504003254N10518032WA019160200200310000
B0005554003231N10518027WA019110199600410000
B0006004003246N10518019WA019110199500710000
B0006054003274N10518027WA019120199600410000
B0006104003300N10518038WA019150199900410000
B0006154003327N10518047WA019110199800610000
B0006204003351N10518044WA019090199400510000
B0006254003378N10518038WA019040199000610000
B0006304003394N10518028WA019120199000410000
B0006354003378N10518021WA019150199000610000
B0006404003357N10518036WA019150199200710000
F000645010306111517242830
B0006454003371N10518024WA019170199501009000
F00065001030611131517242830
B0006504003401N10518031WA019210200100510000
B0006554003430N10518034WA019260200600510000
B0007004003435N10518019WA019270200800410000
B0007054003414N10518032WA019290200900410000
B0007104003390N10518044WA019310201200310000
B0007154003373N10518043WA019310201200310000
B0007204003384N10518030WA019250201100510000
B0007254003412N10518030WA019200200600410000
B0007304003436N10518022WA019230200600510000
B0007354003455N10518020WA019350201200610000
B0007404003452N10518009WA019370201500510000
B0007454003429N10518032WA019440202000510000
B0007504003412N10518036WA019470202600510000
B0007554003429N10518024WA019500202801010000
B0008004003454N10518020WA019480203000510000
B0008054003465N10518007WA019460203000510000
B0008104003447N10518011WA019420202700510000
B0008154003424N10518027WA019390202300410000
B0008204003399N10518033WA019360202200310000
B0008254003375N10518044WA019360202000310000
B0008304003352N10518051WA019380202000310000
B0008354003339N10518040WA019400202000310000
B0008404003356N10518032WA019400202200410000
B0008454003382N10518034WA019390202200510000
B0008504003409N10518031WA019360202100510000
F000855010306111317242830
B0008554003434N10518024WA019360202100409000
F00090001030611131517242830
B0009004003455N10518017WA019400202300410000
B0009054003477N10518016WA019410202400610000
B0009104003481N10518004WA019390202200410000
B0009154003457N10518013WA019360202100410000
B0009204003429N10518028WA019350202000310000
B0009254003403N10518034WA019390202300510000
B0009304003377N10518046WA019410202500310000
B0009354003361N10518036WA019420202700410000
B0009404003376N10518025WA019410202600610000
B0009454003403N10518028WA019380202600510000
B0009504003431N10518025WA019360202400610000
B0009554003455N10518023WA019430202600610000
B0010004003459N10518013WA019420202600510000
B0010054003434N10518027WA019420202500510000
B0010104003410N10518032WA019450202600410000
B0010154003385N10518043WA019410202500410000
B0010204003361N10518050WA019440202500310000
B0010254003336N10518049WA019440202600310000
B0010304003313N10518045WA019450202600310000
B0010354003289N10518046WA019520202900310000
B0010404003271N10518039WA019580203500310000
B0010454003283N10518031WA019610204100610000
B0010504003305N10518052WA019680204700510000
B0010554003312N10518040WA019680205000710000
B0011004003288N10518035WA019710205200410000
B0011054003262N10518037WA019740205600310000
B0011104003239N10518032WA019730205700410000
B0011154003218N10518027WA019730205800410000
B0011204003191N10518029WA019700205600510000
B0011254003168N10518030WA019690205600410000
B0011304003147N10518025WA019700205600310000
B0011354003129N10518013WA019720205800410000
B0011404003113N10518001WA019770206000510000
B0011454003093N10517992WA019760206000410000
B0011504003093N10517974WA019690205800610000
B0011554003120N10517980WA019610205400510000
B0012004003147N10517993WA019610205000410000
B0012054003175N10518006WA019600204800410000
B0012104003201N10518022WA019600204700410000
B0012154003228N10518031WA019590204700410000
B0012204003255N10518037WA019610204700510000
B0012254003280N10518046WA019640204900410000
B0012304003300N10518047WA019620204900510000
B0012354003286N10518034WA019640204900510000
B0012404003258N10518034WA019640205000510000
B0012454003229N10518032WA019690205300410000
B0012504003202N10518035WA019730205700310000
B0012554003178N10518032WA019740205900310000
B0013004003184N10518020WA019690205700610000
B0013054003211N10518029WA019730205800510000
B0013104003235N10518036WA019760206100410000
B0013154003261N10518045WA019750206200510000
B0013204003286N10518055WA019740206100410000
B0013254003311N10518060WA019730206200410000
B0013304003336N10518059WA019690205900410000
B0013354003349N10518048WA019670205600410000
B0013404003331N10518039WA019610205100410000
B0013454003303N10518043WA019610204900410000
B0013504003277N10518047WA019560204600310000
B0013554003254N10518045WA019540204400310000
B0014004003233N10518040WA019560204300410000
B0014054003209N10518035WA019560204300410000
B0014104003185N10518030WA019550204300410000
B0014154003158N10518034WA019490204000310000
B0014204003131N10518037WA019480203800310000
B0014254003106N10518033WA019460203400310000
B0014304003084N10518032WA019500203400410000
F001435010306131517242830
B0014354003060N10518030WA019540203600309000
B0014404003041N10518019WA019600203800309000
B0014454003038N10517999WA019690204500309000
B0014504003026N10517985WA019760205200509000
B0014554003009N10517976WA019760205700509000
B0015004003024N10517961WA019660205400609000
B0015054003052N10517964WA019560204800609000
B0015104003080N10517981WA019590204600409000
B0015154003105N10517993WA019620204700409000
B0015204003130N10518012WA019640204900409000
B0015254003157N10518023WA019620204900409000
B0015304003177N10518024WA019600204800409000
B0015354003167N10518013WA019550204400509000
B0015404003141N10518017WA019510204000409000
B0015454003116N10518010WA019480203600409000
B0015504003090N10518008WA019490203400409000
B0015554003062N10518011WA019540203600309000
B0016004003038N10518012WA019610204100309000
B0016054003017N10518012WA019640204600409000
B0016104003025N10517995WA019660204800509000
B0016154003052N10518003WA019700205300409000
B0016204003077N10518015WA019750205800409000
B0016254003094N10518014WA019810206100509000
B0016304003074N10518006WA019850206300809000
B0016354003049N10518001WA019880206600409000
F0016400103061315172830
B0016404003023N10517997WA019940207100408000
F001645010306131517242830
B0016454003007N10517986WA019960207600409000
B0016504003030N10517981WA019940207600709000
B0016554003056N10517989WA019960207900409000
B0017004003085N10517999WA019990208100309000
B0017054003111N10518011WA020050208500309000
B0017104003137N10518024WA020150209200409000
B0017154003149N10518015WA020200209700809000
B0017204003129N10518010WA020220210100609000
B0017254003110N10518005WA020270210500409000
B0017304003085N10518007WA020310210900409000
B0017354003067N10518001WA020340211200409000
B0017404003079N10517991WA020290211200809000
B0017454003108N10517994WA020290211300609000
F0017500103061315172428
B0017504003137N10518000WA020290211400508000
F001755010306131517242830
B0017554003169N10518013WA020230211100309000
B0018004003201N10518029WA020150210500309000
B0018054003229N10518041WA020090209700509000
B0018104003236N10518024WA020040209000609000
B0018154003216N10518028WA019980208500709000
B0018204003193N10518022WA019920208100409000
B0018254003171N10518019WA019890207800409000
B0018304003146N10518018WA019820207300309000
B0018354003123N10518015WA019810206800309000
B0018404003100N10518009WA019920206800409000
B0018454003076N10518018WA020000207700409000
B0018504003067N10518001WA020030208100609000
B0018554003089N10518009WA020070208500509000
B0019004003111N10518023WA020120208900409000
B0019054003116N10518010WA020160209200809000
B0019104003093N10518008WA020150209400509000
B0019154003065N10518006WA020190209700409000
B0019204003040N10518008WA020210210100409000
B0019254003047N10517993WA020170209900809000
B0019304003068N10518003WA020180210000609000
B0019354003094N10518013WA020190210100409000
B0019404003118N10518023WA020180210100409000
B0019454003141N10518032WA020160209900409000
B0019504003167N10518040WA020110209500409000
B0019554003189N10518045WA020080209200409000
B0020004003186N10518034WA020040208900409000
B0020054003163N10518028WA019970208400409000
B0020104003137N10518026WA019920208000309000
B0020154003112N10518021WA019910207600409000
B0020204003084N10518020WA019850207100309000
B0020254003057N10518015WA019850206800309000
B0020304003030N10518014WA019870206800309000
B0020354003003N10518010WA019960207100409000
B0020404002980N10518005WA019960207400409000
B0020454002951N10518002WA019980207600409000
B0020504002925N10517996WA019990207700309000
B0020554002926N10517979WA020030208000409000
B0021004002950N10517987WA020060208300409000
B0021054002974N10517989WA020080208600409000
B0021104002997N10517996WA020080208800309000
B0021154003019N10517999WA020150209200409000
B0021204003039N10517995WA020150209400509000
B0021254003062N10517989WA020160209500309000
B0021304003083N10517983WA020210209700409000
B0021354003080N10517973WA020240209900509000
B0021404003060N10517974WA020270210200509000
B0021454003037N10517974WA020360210700509000
F0021500103061517242830
B0021504003019N10517966WA020450211500408000
F002155010306131517242830
B0021554003027N10517958WA020450212100609000
B0022004003053N10517963WA020530212900709000
B0022054003072N10517959WA020580213500609000
B0022104003056N10517951WA020630214000709000
B0022154003029N10517959WA020720214700709000
B0022204003002N10517966WA020760215300609000
B0022254002992N10517948WA020790215700609000
B0022304003016N10517944WA020810215900509000
B0022354003040N10517957WA020810216200509000
B0022404003065N10517966WA020810216200409000
B0022454003091N10517974WA020810216200409000
B0022504003114N10517974WA020830216400309000
B0022554003113N10517956WA020830216500409000
B0023004003089N10517950WA020820216500609000
B0023054003064N10517949WA020840216600609000
B0023104003032N10517951WA020880216700709000
B0023154003007N10517958WA020930217100409000
B0023204003000N10517941WA020910217300609000
B0023254003024N10517943WA020950217600409000
B0023304003049N10517956WA021020218100409000
B0023354003077N10517965WA021020218400509000
B0023404003107N10517972WA021020218600509000
B0023454003133N10517977WA021070218800509000
B0023504003129N10517966WA021100219000709000
B0023554003106N10517975WA021110219100409000
B0024004003085N10517981WA021130219300409000
B0024054003063N10517983WA021130219500309000
B0024104003055N10517970WA021130219600409000
B0024154003081N10517966WA021120219500509000
B0024204003107N10517958WA021150219700409000
B0024254003133N10517958WA021180220000409000
B0024304003143N10517946WA021180220200509000
B0024354003126N10517940WA021150220100709000
B0024404003099N10517951WA021150220100509000
F00244501020306131517242830
B0024454003073N10517957WA021180220300310000
B0024504003047N10517961WA021170220300310000
B0024554003019N10517963WA021210220400410000
B0025004002993N10517966WA021270220900410000
B0025054002975N10517958WA021320221400310000
B0025104002992N10517949WA021300221500410000
B0025154003020N10517967WA021320221700310000
B0025204003048N10517982WA021350222100310000
F002525010203061517242830
B0025254003072N10517990WA021380222400309000
F00253001020306131517242830
B0025304003081N10517978WA021360222500710000
B0025354003062N10517976WA021380222600410000
B0025404003037N10517976WA021390222700310000
B0025454003013N10517973WA021420222800310000
B0025504002989N10517972WA021440222900410000
B0025554002967N10517969WA021490223300410000
B0026004002943N10517969WA021490223400310000
B0026054002919N10517967WA021520223700310000
B0026104002893N10517978WA021600224200310000
B0026154002883N10518020WA021650224600410000
B0026204002898N10518053WA021720225200310000
B0026254002920N10518051WA021760225700310000
B0026304002936N10518047WA021880226600310000
B0026354002927N10518040WA021920227400710000
B0026404002914N10518081WA021970227800710000
B0026454002936N10518098WA022070228600510000
B0026504002949N10518083WA022130229400410000
B0026554002956N10518062WA022210230300510000
B0027004002936N10518064WA022240230700310000
B0027054002937N10518104WA022220230600710000
B0027104002963N10518107WA022250230900510000
B0027154002986N10518103WA022230231000410000
F002720010306131517242830
B0027204003011N10518098WA022240231100409000
F00272501020306131517242830
B0027254003029N10518084WA022260231200310000
F002730010203061315172830
B0027304003027N10518068WA022280231500309000
F00273501020306131517242830
B0027354003010N10518057WA022280231600310000
B0027404002992N10518046WA022250231400410000
B0027454002971N10518041WA022240231200410000
B0027504002952N10518037WA022210230900310000
B0027554002934N10518033WA022230230900410000
B0028004002918N10518025WA022210230900310000
B0028054002911N10518009WA022210230700310000
B0028104002935N10518005WA022180230600410000
F002815010306131517242830
B0028154002967N10518013WA022180230600409000
F00282001020306131517242830
B0028204002997N10518010WA022180230600310000
B0028254003029N10518009WA022190230500310000
B0028304003061N10518008WA022190230500310000
B0028354003093N10518010WA022170230400310000
B0028404003127N10518022WA022150230300310000
B0028454003163N10518037WA022100229900210000
B0028504003197N10518047WA022100230000210000
B0028554003226N10518045WA022090229900310000
B0029004003255N10518045WA022110230000210000
B0029054003283N10518045WA022120230100310000
B0029104003307N10518039WA022130230300310000
B0029154003330N10518030WA022100230100310000
B0029204003353N10518017WA022080230000210000
B0029254003373N10518003WA022090230000210000
F002930010203061517242830
B0029304003393N10517989WA022030229800309000
F00293501020306131517242830
B0029354003417N10517979WA022060229600310000
B0029404003444N10517979WA022070229700310000
B0029454003472N10517978WA022070229800310000
B0029504003501N10517975WA022050229600310000
F002955010306131517242830
B0029554003528N10517971WA022010229300309000
F00300001020306131517242830
B0030004003558N10517969WA022000229000310000
B0030054003588N10517970WA022000228800310000
B0030104003617N10517983WA022000228800310000
B0030154003643N10517988WA021990228600510000
B0030204003645N10517973WA021990228600510000
B0030254003627N10517974WA022020228800410000
B0030304003601N10517979WA022000228800410000
B0030354003577N10517983WA022030229000510000
B0030404003559N10518003WA022050229100410000
B0030454003567N10518050WA022030229100410000
B0030504003590N10518053WA022010228900410000
B0030554003603N10518038WA022050229100410000
B0031004003602N10518021WA022060229100310000
B0031054003605N10518001WA022060229200510000
B0031104003587N10517997WA022040229300410000
B0031154003565N10518001WA022000229000410000
B0031204003542N10518011WA021980228800310000
B0031254003519N10518020WA021960228600310000
B0031304003495N10518031WA021930228200610000
B0031354003471N10518040WA021910227900610000
B0031404003446N10518044WA021900227900510000
B0031454003424N10518044WA021870227700510000
B0031504003400N10518048WA021830227400410000
B0031554003378N10518052WA021810227200410000
B0032004003356N10518053WA021790226900310000
B0032054003335N10518050WA021780226700310000
B0032104003314N10518046WA021730226400310000
B0032154003293N10518044WA021710226000510000
B0032204003270N10518042WA021680225800410000
B0032254003248N10518038WA021640225500610000
B0032304003224N10518034WA021600225000610000
B0032354003202N10518031WA021590224800610000
B0032404003179N10518034WA021540224300410000
B0032454003155N10518040WA021490224000410000
B0032504003135N10518036WA021450223800310000
B0032554003125N10518016WA021430223600310000
F003300010203061317242830
B0033004003123N10517991WA021360223300309000
F00330501020306131517242830
B0033054003128N10517967WA021340223000410000
B0033104003134N10517944WA021300222800410000
B0033154003140N10517921WA021260222100310000
B0033204003143N10517895WA021200221200310000
F003325010203061317242830
B0033254003147N10517870WA021170220700409000
F00333001020306131517242830
B0033304003154N10517847WA021140220400310000
B0033354003165N10517822WA021090220100210000
F003340010203061317242830
B0033404003175N10517794WA021060219700309000
B0033454003183N10517767WA021020219500309000
F00335001020306131517242830
B0033504003189N10517742WA020970219100310000
B0033554003196N10517712WA020960218700310000
F003400010203061317242830
B0034004003203N10517683WA020890218300409000
B0034054003206N10517656WA020870218000409000
F00341001020306131517242830
B0034104003212N10517629WA020820217600310000
B0034154003221N10517600WA020770217000210000
B0034204003229N10517573WA020750216600210000
B0034254003240N10517545WA020700216200210000
B0034304003251N10517517WA020640215700210000
F003435010203061317242830
B0034354003261N10517488WA020590215100209000
F00344001020306131517242830
B0034404003269N10517461WA020540214600210000
B0034454003276N10517436WA020510214100210000
F003450010203061317242830
B0034504003283N10517410WA020460213600309000
F00345501020306131517242830
B0034554003291N10517387WA020420213100210000
F003500010203061517242830
B0035004003300N10517363WA020390212800309000
F00350501020306131517242830
B0035054003313N10517337WA020330212300210000
B0035104003328N10517312WA020300211800210000
B0035154003345N10517290WA020260211400210000
B0035204003364N10517268WA020240211100210000
B0035254003382N10517247WA020220210900210000
B0035304003399N10517224WA020170210600210000
B0035354003416N10517202WA020120210200210000
B0035404003430N10517181WA020090209800210000
B0035454003445N10517158WA020040209200210000
B0035504003459N10517138WA019970208600210000
B0035554003475N10517118WA019940208000210000
B0036004003492N10517098WA019910207600210000
B0036054003512N10517080WA019870207200210000
B0036104003529N10517060WA019840206900210000
B0036154003543N10517038WA019810206500210000
B0036204003560N10517017WA019750206300210000
B0036254003576N10516998WA019710205900210000
F003630010203061317242830
B0036304003589N10516976WA019680205600309000
F00363501020306131517242830
B0036354003593N10516964WA019640205200310000
B0036404003578N10516958WA019610204700310000
B0036454003556N10516955WA019560204400410000
B0036504003537N10516956WA019490204100410000
B0036554003516N10516958WA019450203700410000
B0037004003494N10516959WA019400203200410000
B0037054003473N10516954WA019340202500410000
B0037104003452N10516953WA019270201700410000
B0037154003434N10516950WA019220201200410000
B0037204003410N10516951WA019150200400310000
B0037254003385N10516958WA019110199700310000
B0037304003360N10516974WA019070199200310000
B0037354003339N10517010WA019040198900210000
B0037404003326N10517056WA019000198400310000
B0037454003324N10517107WA018980198100310000
B0037504003326N10517159WA018950197900310000
B0037554003335N10517207WA018930197700310000
B0038004003348N10517253WA018910197500410000
B0038054003363N10517298WA018860197100610000
B0038104003383N10517340WA018780196500210000
B0038154003404N10517378WA018760196200410000
B0038204003425N10517420WA018720195800410000
B0038254003443N10517463WA018700195500310000
B0038304003458N10517508WA018660195400310000
B0038354003473N10517539WA018590195000410000
F003840010203061317242830
B0038404003462N10517528WA018510194300909000
B0038454003445N10517525WA018420193301009000
B0038504003424N10517533WA018350192501209000
B0038554003419N10517515WA018270191201009000
B0039004003402N10517509WA018260190501309000
B0039054003394N10517485WA018250190400809000
F0039100102030617242830
B0039104003392N10517514WA018140190001408000
B0039154003407N10517502WA018130189900808000
B0039204003414N10517483WA018090189500708000
B0039254003418N10517466WA018030189100408000
B0039304003440N10517463WA017950188700508000
B0039354003447N10517503WA017890188100608000
B0039404003439N10517548WA017830187500408000
B0039454003429N10517592WA017770186700408000
B0039504003418N10517636WA017760186300308000
B0039554003417N10517671WA017760186000508000
B0040004003436N10517664WA017680185201208000
B0040054003413N10517642WA017620184800708000
B0040104003397N10517619WA017610184700708000
B0040154003384N10517593WA017580184300608000
B0040204003372N10517567WA017550184000508000
B0040254003362N10517541WA017500183600608000
B0040304003354N10517523WA017500183400808000
B0040354003340N10517512WA017430182800808000
B0040404003328N10517503WA017370182200608000
B0040454003350N10517497WA017300181600508000
B0040504003375N10517503WA017220181100508000
B0040554003397N10517524WA017230180700508000
B0041004003412N10517519WA017170180000908000
B0041054003385N10517528WA017150179600708000
B0041104003354N10517545WA017120179400508000
B0041154003325N10517559WA017060178900608000
B0041204003308N10517554WA016970178400708000
B0041254003326N10517542WA016950177900708000
B0041304003347N10517534WA016910177700508000
B0041354003359N10517527WA016860177201008000
B0041404003332N10517513WA016800176800708000
B0041454003303N10517503WA016770176200908000
B0041504003280N10517499WA016720175701108000
B0041554003270N10517485WA016650175100808000
B0042004003284N10517469WA016570174400608000
B0042054003293N10517454WA016510173500508000
B0042104003311N10517444WA016430172700408000
B0042154003325N10517431WA016380172000408000
B0042204003335N10517418WA016350171500408000
B0042254003335N10517417WA016350171300608000
B0042304003335N10517417WA016350171300508000
B0042354003336N10517418WA016350171200408000
B0042404003335N10517421WA016350171200408000
B0042454003335N10517422WA016350171100508000
B0042504003334N10517422WA016350171000508000
B0042554003334N10517422WA016350171000508000
B0043004003335N10517422WA016350171000508000
B0043054003335N10517422WA016350170900508000
B0043104003335N10517424WA016350170900508000
B0043154003335N10517428WA016350170900408000
B0043204003338N10517433WA016360170900508000
B0043254003340N10517437WA016370170900508000
B0043304003341N10517438WA016370171000508000
B0043354003342N10517437WA016370171000608000
B0043404003341N10517437WA016370171000608000
B0043454003340N10517436WA016370171100608000
B0043504003341N10517437WA016370171100508000
B0043554003340N10517436WA016370171000608000
B0044004003341N10517435WA016370171000608000
B0044054003341N10517436WA016370171000508000
B0044104003341N10517438WA016370171000608000
B0044154003341N10517438WA016360171000508000
B0044204003341N10517438WA016360171000508000
B0044254003341N10517438WA016360171000508000
B0044304003341N10517438WA016360171000508000
B0044354003341N10517438WA016360171000608000
B0044404003341N10517438WA016360171000608000
B0044454003341N10517438WA016360171000608000
B0044504003341N10517438WA016360171000508000
B0044554003341N10517438WA016360171000408000
B0045004003341N10517438WA016360171000408000
B0045054003341N10517438WA016360171000408000
B0045104003341N10517438WA016360171000408000
L   FlyChart®
L   Version 4.52(72) TEST, June 31st 2012
G0B60CF8893FA150FFBB9AF0DCDE10878CB42967E2B58523F06ECBB2BED592DFD
